0000000011119089534000164000000000000TREZO SOLUCOES WEB LTDA EPP                                                                                                                           0109201730092017041020171429
000000002200010800180012001330
000000003200020730140012001230
000000004200030900180012001300
000000005200040830180012001330
000000006200050800153012001330
000000007200060900163012001330
000000008200070800173012001330
000000009302076399069201092017090000030800000001000700D00001000D00000010D00000000N000010000
000000010302076399069202092017160000000000000000000700D02001000D00000010D00000000N000010000
000000011302076399069203092017    00000000000000000700D00001000D00000010D00000000N000010000
000000012302076399069204092017090000030800000001010700D00001000D00000010D00000000N000010000
000000013302076399069205092017090000030718000000000700D00001000D00000010D00000000N004210000
000000014302076399069206092017090000030800000000300700D00001000D00000010D00000000N000010000
000000015302076399069207092017080000030800000000300700D00001000D00000010D00000000N000010000
000000016302076399069208092017    00030000000000000700D00001000D00000010D00000000N000010000
000000017302076399069209092017    00000000000000000700D00001000D00000010D00000000N000010000
000000018302076399069210092017    00000000000000000700D00001000D00000010D00000000N000010000
000000019302076399069211092017080000030800000000300700D00001000D00000010D00000000N000010000
000000020302076399069212092017080000030800000000300700D00001000D00000010D00000000N000010000
000000021302076399069213092017080000030800000000300700D00001000D00000010D00000000N000010000
000000022302076399069214092017100600030615000000000700D00001000D00000010D00000000N014510000
000000023302076399069215092017090000030400000000000700D00001000D00000010D00000000N000010000
000000024302076399069216092017    00000000000000000700D00001000D00000010D00000000N000010000
000000025302076399069217092017    00000000000000000700D00001000D00000010D00000000N000010000
000000026302076399069218092017090000030800000000480700D00001000D00000010D00000000N000010000
000000027302076399069219092017091200030741000000000700D00001000D00000010D00000000N001910000
000000028302076399069220092017090000030732000000000700D00001000D00000010D00000000N002810000
000000029302076399069221092017091600030800000001070700D00001000D00000010D00000000N000010000
000000030302076399069222092017    00030000000000000700D00001000D00000010D00000000N000010000
000000031302076399069223092017    00000000000000000700D00001000D00000010D00000000N000010000
000000032302076399069224092017    00000000000000000700D00001000D00000010D00000000N000010000
000000033302076399069225092017090800030800000000410700D00001000D00000010D00000000N000010000
000000034302076399069226092017090000030800000000520700D00001000D00000010D00000000N000010000
000000035302076399069227092017091300030651000000000700D00001000D00000010D00000000N010910000
000000036302076399069228092017102800030800000000210700D00001000D00000010D00000000N000010000
000000037302076399069229092017090000030320000000000700D00001000D00000010D00000000N000010000
000000038302076399069230092017    00000000000000000700D00001000D00000010D00000000N000010000
000000039302008901929001092017090400010754000000000700D00001000D00000010D00000000N003610000
000000040302008901929002092017    00000000000000000700D00001000D00000010D00000000N000010000
000000041302008901929003092017    00000000000000000700D00001000D00000010D00000000N000010000
000000042302008901929004092017085500010830000000210700D00001000D00000010D00000000N000010000
000000043302008901929005092017091800010830000000320700D00001000D00000010D00000000N000010000
000000044302008901929006092017091300010707000000000700D00001000D00000010D00000000N012310000
000000045302008901929007092017080000010830000000000700D00001000D00000010D00000000N000010000
000000046302008901929008092017    00010000000000000700D00001000D00000010D00000000N000010000
000000047302008901929009092017    00000000000000000700D00001000D00000010D00000000N000010000
000000048302008901929010092017    00000000000000000700D00001000D00000010D00000000N000010000
000000049302008901929011092017080000010830000000000700D00001000D00000010D00000000N000010000
000000050302008901929012092017080000010830000000000700D00001000D00000010D00000000N000010000
000000051302008901929013092017080000010830000000000700D00001000D00000010D00000000N000010000
000000052302008901929014092017090400010830000000340700D00001000D00000010D00000000N000010000
000000053302008901929015092017091600010830000002360700D00001000D00000010D00000000N000010000
000000054302008901929016092017    00000000000000000700D00001000D00000010D00000000N000010000
000000055302008901929017092017    00000000000000000700D00001000D00000010D00000000N000010000
000000056302008901929018092017085400010830000000180700D00001000D00000010D00000000N000010000
000000057302008901929019092017091400010717000000000700D00001000D00000010D00000000N011310000
000000058302008901929020092017091000010830000001270700D00001000D00000010D00000000N000010000
000000059302008901929021092017094900010830000000000700D00001000D00000010D00000000N000010000
000000060302008901929022092017080000010830000002430700D00001000D00000010D00000000N000010000
000000061302008901929023092017    00000000000000000700D00001000D00000010D00000000N000010000
000000062302008901929024092017    00000000000000000700D00001000D00000010D00000000N000010000
000000063302008901929025092017090300010723000000000700D00001000D00000010D00000000N010710000
000000064302008901929026092017093500010706000000000700D00001000D00000010D00000000N012410000
000000065302008901929027092017091400010738000000000700D00001000D00000010D00000000N005210000
000000066302008901929028092017090800010734000000000700D00001000D00000010D00000000N005610000
000000067302008901929029092017091600010715000000000700D00001000D00000010D00000000N011510000
000000068302008901929030092017    00000000000000000700D00001000D00000010D00000000N000010000
000000069302105088354501092017093800040800000000000700D00001000D00000000D00000000N000010000
000000070302105088354502092017    00000000000000000700D00001000D00000000D00000000N000010000
000000071302105088354503092017    00000000000000000700D00001000D00000000D00000000N000010000
000000072302105088354504092017092700040800000000000700D00001000D00000000D00000000N000010000
000000073302105088354505092017090500040800000001360700D00001000D00000000D00000000N000010000
000000074302105088354506092017093100040635000000000700D00001000D00000000D00000000N012510000
000000075302105088354507092017080000040800000000000700D00001000D00000000D00000000N000010000
000000076302105088354508092017    00040000000000000700D00001000D00000000D00000000N000010000
000000077302105088354509092017    00000000000000000700D00001000D00000000D00000000N000010000
000000078302105088354510092017    00000000000000000700D00001000D00000000D00000000N000010000
000000079302105088354511092017080000040800000000000700D00001000D00000000D00000000N000010000
000000080302105088354512092017080000040800000000000700D00001000D00000000D00000000N000010000
000000081302105088354513092017080000040800000000000700D00001000D00000000D00000000N000010000
000000082302105088354514092017094400040717000000000700D00001000D00000000D00000000N004310000
000000083302105088354515092017084700040800000001380700D00001000D00000000D00000000N000010000
000000084302105088354516092017    00000000000000000700D00001000D00000000D00000000N000010000
000000085302105088354517092017    00000000000000000700D00001000D00000000D00000000N000010000
000000086302105088354518092017085400040800000000000700D00001000D00000000D00000000N000010000
000000087302105088354519092017090500040800000000480700D00001000D00000000D00000000N000010000
000000088302105088354520092017085600040800000002510700D00001000D00000000D00000000N000010000
000000089302105088354521092017085400040800000000180700D00001000D00000000D00000000N000010000
000000090302105088354522092017085700040800000000160700D00001000D00000000D00000000N000010000
000000091302105088354523092017    00000000000000000700D00001000D00000000D00000000N000010000
000000092302105088354524092017    00000000000000000700D00001000D00000000D00000000N000010000
000000093302105088354525092017084800040800000000000700D00001000D00000000D00000000N000010000
000000094302105088354526092017090900040800000000200700D00001000D00000000D00000000N000010000
000000095302105088354527092017091000040800000000440700D00001000D00000000D00000000N000010000
000000096302105088354528092017083000040800000001370700D00001000D00000000D00000000N000010000
000000097302105088354529092017082800040800000001160700D00001000D00000000D00000000N000010000
000000098302105088354530092017    00000000000000000700D00001000D00000000D00000000N000010000
000000099302032644192601092017082800070800000000410700D00001000D00000010D00000000N000010000
000000100302032644192602092017    00000000000000000700D00001000D00000010D00000000N000010000
000000101302032644192603092017    00000000000000000700D00001000D00000010D00000000N000010000
000000102302032644192604092017083400070734000000000700D00001000D00000010D00000000N002610000
000000103302032644192605092017090500070707000000000700D00001000D00000010D00000000N005310000
000000104302032644192606092017082600070800000000000700D00001000D00000010D00000000N000010000
000000105302032644192607092017080000070800000000000700D00001000D00000010D00000000N000010000
000000106302032644192608092017    00070000000000000700D00001000D00000010D00000000N000010000
000000107302032644192609092017    00000000000000000700D00001000D00000010D00000000N000010000
000000108302032644192610092017    00000000000000000700D00001000D00000010D00000000N000010000
000000109302032644192611092017080000070800000000000700D00001000D00000010D00000000N000010000
000000110302032644192612092017080000070800000000000700D00001000D00000010D00000000N000010000
000000111302032644192613092017080000070800000000000700D00001000D00000010D00000000N000010000
000000112302032644192614092017092200070739000000000700D00001000D00000010D00000000N002110000
000000113302032644192615092017081100070800000000000700D00001000D00000010D00000000N000010000
000000114302032644192616092017    00000000000000000700D00001000D00000010D00000000N000010000
000000115302032644192617092017    00000000000000000700D00001000D00000010D00000000N000010000
000000116302032644192618092017072100070800000001210700D00001000D00000010D00000000N000010000
000000117302032644192619092017071900070800000001060700D00001000D00000010D00000000N000010000
000000118302032644192620092017072700070800000000430700D00001000D00000010D00000000N000010000
000000119302032644192621092017071300070800000001260700D00001000D00000010D00000000N000010000
000000120302032644192622092017085700070800000001110700D00001000D00000010D00000000N000010000
000000121302032644192623092017    00000000000000000700D00001000D00000010D00000000N000010000
000000122302032644192624092017    00000000000000000700D00001000D00000010D00000000N000010000
000000123302032644192625092017072200070800000001140700D00001000D00000010D00000000N000010000
000000124302032644192626092017072900070800000001410700D00001000D00000010D00000000N000010000
000000125302032644192627092017081400070800000000350700D00001000D00000010D00000000N000010000
000000126302032644192628092017071900070800000002440700D00001000D00000010D00000000N000010000
000000127302032644192629092017082800070800000001150700D00001000D00000010D00000000N000010000
000000128302032644192630092017    00000000000000000700D00001000D00000010D00000000N000010000
000000129302007910387601092017083200040800000000470700D00001000D00000000D00000000N000010000
000000130302007910387602092017    00000000000000000700D00001000D00000000D00000000N000010000
000000131302007910387603092017    00000000000000000700D00001000D00000000D00000000N000010000
000000132302007910387604092017084000040800000000520700D00001000D00000000D00000000N000010000
000000133302007910387605092017    00040000000000000700D00001000D00000000D00000000N000010000
000000134302007910387606092017    00040000000000000700D00001000D00000000D00000000N000010000
000000135302007910387607092017    00040000000000000700D00001000D00000000D00000000N000010000
000000136302007910387608092017    00040000000000000700D00001000D00000000D00000000N000010000
000000137302007910387609092017    00000000000000000700D00001000D00000000D00000000N000010000
000000138302007910387610092017    00000000000000000700D00001000D00000000D00000000N000010000
000000139302007910387611092017    00040000000000000700D00001000D00000000D00000000N000010000
000000140302007910387612092017080000040800000000000700D00001000D00000000D00000000N000010000
000000141302007910387613092017080000040800000000000700D00001000D00000000D00000000N000010000
000000142302007910387614092017    00040518000000000700D00001000D00000000D00000000N000010000
000000143302007910387615092017    00040000000000000700D00001000D00000000D00000000N000010000
000000144302007910387616092017    00000000000000000700D00001000D00000000D00000000N000010000
000000145302007910387617092017    00000000000000000700D00001000D00000000D00000000N000010000
000000146302007910387618092017    00040000000000000700D00001000D00000000D00000000N000010000
000000147302007910387619092017084600040800000000000700D00001000D00000000D00000000N000010000
000000148302007910387620092017090600040800000000000700D00001000D00000000D00000000N000010000
000000149302007910387621092017092600040800000000100700D00001000D00000000D00000000N000010000
000000150302007910387622092017085300040719000000000700D00001000D00000000D00000000N004110000
000000151302007910387623092017    00000000000000000700D00001000D00000000D00000000N000010000
000000152302007910387624092017    00000000000000000700D00001000D00000000D00000000N000010000
000000153302007910387625092017081000040800000000130700D00001000D00000000D00000000N000010000
000000154302007910387626092017082200040800000001100700D00001000D00000000D00000000N000010000
000000155302007910387627092017081300040800000000440700D00001000D00000000D00000000N000010000
000000156302007910387628092017085200040800000000110700D00001000D00000000D00000000N000010000
000000157302007910387629092017083400040800000001010700D00001000D00000000D00000000N000010000
000000158302007910387630092017091100000000000006360700D00001000D00000000D00000000N000010000
000000159301264690972301092017074200020445000000000700D00001000D00000010D00000000N011510000
000000160301264690972302092017    00000000000000000700D00001000D00000010D00000000N000010000
000000161301264690972303092017    00000000000000000700D00001000D00000010D00000000N000010000
000000162301264690972304092017073700020600000000150700D00001000D00000010D00000000N000010000
000000163301264690972305092017073000020527000000000700D00001000D00000010D00000000N003310000
000000164301264690972306092017073000020420000000000700D00001000D00000010D00000000N001010000
000000165301264690972307092017080000020600000000000700D00001000D00000010D00000000N000010000
000000166301264690972308092017    00020000000000000700D00001000D00000010D00000000N000010000
000000167301264690972309092017    00000000000000000700D00001000D00000010D00000000N000010000
000000168301264690972310092017    00000000000000000700D00001000D00000010D00000000N000010000
000000169301264690972311092017080000020600000000000700D00001000D00000010D00000000N000010000
000000170301264690972312092017080000020600000000000700D00001000D00000010D00000000N000010000
000000171301264690972313092017080000020600000000000700D00001000D00000010D00000000N000010000
000000172301264690972314092017080000020600000000110700D00001000D00000010D00000000N000010000
000000173301264690972315092017080000020546000000000700D00001000D00000010D00000000N001410000
000000174301264690972316092017    00000000000000000700D00001000D00000010D00000000N000010000
000000175301264690972317092017    00000000000000000700D00001000D00000010D00000000N000010000
000000176301264690972318092017072900020600000000190700D00001000D00000010D00000000N000010000
000000177301264690972319092017072900020600000000110700D00001000D00000010D00000000N000010000
000000178301264690972320092017073600020600000000430700D00001000D00000010D00000000N000010000
000000179301264690972321092017073100020600000000000700D00001000D00000010D00000000N000010000
000000180301264690972322092017073000020600000000490700D00001000D00000010D00000000N000010000
000000181301264690972323092017    00000000000000000700D00001000D00000010D00000000N000010000
000000182301264690972324092017    00000000000000000700D00001000D00000010D00000000N000010000
000000183301264690972325092017075900020545000000000700D00001000D00000010D00000000N001510000
000000184301264690972326092017074200020600000000170700D00001000D00000010D00000000N000010000
000000185301264690972327092017075800020526000000000700D00001000D00000010D00000000N003410000
000000186301264690972328092017095900020419000000000700D00001000D00000010D00000000N014110000
000000187301264690972329092017073000020600000000000700D00001000D00000010D00000000N000010000
000000188301264690972330092017    00000000000000000700D00001000D00000010D00000000N000010000
000000189301273986351001092017075700010830000000290700D00001000D00000010D00000000N000010000
000000190301273986351002092017    00000000000000000700D00001000D00000010D00000000N000010000
000000191301273986351003092017    00000000000000000700D00001000D00000010D00000000N000010000
000000192301273986351004092017075600010830000000110700D00001000D00000010D00000000N000010000
000000193301273986351005092017075000010830000000000700D00001000D00000010D00000000N000010000
000000194301273986351006092017075400010830000000000700D00001000D00000010D00000000N000010000
000000195301273986351007092017080000010830000000000700D00001000D00000010D00000000N000010000
000000196301273986351008092017    00010000000000000700D00001000D00000010D00000000N000010000
000000197301273986351009092017    00000000000000000700D00001000D00000010D00000000N000010000
000000198301273986351010092017    00000000000000000700D00001000D00000010D00000000N000010000
000000199301273986351011092017080000010830000000000700D00001000D00000010D00000000N000010000
000000200301273986351012092017080000010830000000000700D00001000D00000010D00000000N000010000
000000201301273986351013092017080000010830000000000700D00001000D00000010D00000000N000010000
000000202301273986351014092017080000010830000000180700D00001000D00000010D00000000N000010000
000000203301273986351015092017080000010830000004110700D00001000D00000010D00000000N000010000
000000204301273986351016092017    00000000000000000700D00001000D00000010D00000000N000010000
000000205301273986351017092017    00000000000000000700D00001000D00000010D00000000N000010000
000000206301273986351018092017075400010830000001090700D00001000D00000010D00000000N000010000
000000207301273986351019092017080000010830000000300700D00001000D00000010D00000000N000010000
000000208301273986351020092017074900010830000002250700D00001000D00000010D00000000N000010000
000000209301273986351021092017074900010830000002360700D00001000D00000010D00000000N000010000
000000210301273986351022092017075400010830000002530700D00001000D00000010D00000000N000010000
000000211301273986351023092017    00000000000000000700D00001000D00000010D00000000N000010000
000000212301273986351024092017    00000000000000000700D00001000D00000010D00000000N000010000
000000213301273986351025092017075600010830000000150700D00001000D00000010D00000000N000010000
000000214301273986351026092017075500010830000000140700D00001000D00000010D00000000N000010000
000000215301273986351027092017075000010830000000200700D00001000D00000010D00000000N000010000
000000216301273986351028092017075500010830000000310700D00001000D00000010D00000000N000010000
000000217301273986351029092017075700010830000000200700D00001000D00000010D00000000N000010000
000000218301273986351030092017083400000000000005270700D00001000D00000010D00000000N000010000
000000219301544503587901092017083100010830000000000700D00001000D00000010D00000000N000010000
000000220301544503587902092017    00000000000000000700D00001000D00000010D00000000N000010000
000000221301544503587903092017    00000000000000000700D00001000D00000010D00000000N000010000
000000222301544503587904092017084900010830000000390700D00001000D00000010D00000000N000010000
000000223301544503587905092017085300010817000000000700D00001000D00000010D00000000N001310000
000000224301544503587906092017084000010740000000000700D00001000D00000010D00000000N005010000
000000225301544503587907092017    00010000000000000700D00001000D00000010D00000000N000010000
000000226301544503587908092017    00010000000000000700D00001000D00000010D00000000N000010000
000000227301544503587909092017    00000000000000000700D00001000D00000010D00000000N000010000
000000228301544503587910092017    00000000000000000700D00001000D00000010D00000000N000010000
000000229301544503587911092017080000010830000000000700D00001000D00000010D00000000N000010000
000000230301544503587912092017080000010830000000000700D00001000D00000010D00000000N000010000
000000231301544503587913092017080000010830000000000700D00001000D00000010D00000000N000010000
000000232301544503587914092017090400010830000000300700D00001000D00000010D00000000N000010000
000000233301544503587915092017092900010830000002120700D00001000D00000010D00000000N000010000
000000234301544503587916092017    00000000000000000700D00001000D00000010D00000000N000010000
000000235301544503587917092017    00000000000000000700D00001000D00000010D00000000N000010000
000000236301544503587918092017100900010759000000000700D00001000D00000010D00000000N003110000
000000237301544503587919092017093000010830000000000700D00001000D00000010D00000000N000010000
000000238301544503587920092017085500010830000000450700D00001000D00000010D00000000N000010000
000000239301544503587921092017085200010830000000400700D00001000D00000010D00000000N000010000
000000240301544503587922092017085300010830000001420700D00001000D00000010D00000000N000010000
000000241301544503587923092017    00000000000000000700D00001000D00000010D00000000N000010000
000000242301544503587924092017    00000000000000000700D00001000D00000010D00000000N000010000
000000243301544503587925092017084900010830000000350700D00001000D00000010D00000000N000010000
000000244301544503587926092017084900010830000000150700D00001000D00000010D00000000N000010000
000000245301544503587927092017085400010736000000000700D00001000D00000010D00000000N005410000
000000246301544503587928092017085100010830000000390700D00001000D00000010D00000000N000010000
000000247301544503587929092017085400010830000000300700D00001000D00000010D00000000N000010000
000000248301544503587930092017092300000000000006310700D00001000D00000010D00000000N000010000
000000249301343095672101092017075600010830000000000700D00001000D00000010D00000000N000010000
000000250301343095672102092017    00000000000000000700D00001000D00000010D00000000N000010000
000000251301343095672103092017    00000000000000000700D00001000D00000010D00000000N000010000
000000252301343095672104092017073800010810000000000700D00001000D00000010D00000000N002010000
000000253301343095672105092017080600010830000000000700D00001000D00000010D00000000N000010000
000000254301343095672106092017074700010819000000000700D00001000D00000010D00000000N001110000
000000255301343095672107092017080000010830000000000700D00001000D00000010D00000000N000010000
000000256301343095672108092017    00010000000000000700D00001000D00000010D00000000N000010000
000000257301343095672109092017    00000000000000000700D00001000D00000010D00000000N000010000
000000258301343095672110092017    00000000000000000700D00001000D00000010D00000000N000010000
000000259301343095672111092017080000010830000000000700D00001000D00000010D00000000N000010000
000000260301343095672112092017080000010830000000000700D00001000D00000010D00000000N000010000
000000261301343095672113092017080000010830000000000700D00001000D00000010D00000000N000010000
000000262301343095672114092017075200010830000000480700D00001000D00000010D00000000N000010000
000000263301343095672115092017073900010830000000510700D00001000D00000010D00000000N000010000
000000264301343095672116092017    00000000000000000700D00001000D00000010D00000000N000010000
000000265301343095672117092017    00000000000000000700D00001000D00000010D00000000N000010000
000000266301343095672118092017075300010830000000290700D00001000D00000010D00000000N000010000
000000267301343095672119092017073800010830000000310700D00001000D00000010D00000000N000010000
000000268301343095672120092017073800010830000000450700D00001000D00000010D00000000N000010000
000000269301343095672121092017074100010830000000500700D00001000D00000010D00000000N000010000
000000270301343095672122092017073000010830000000160700D00001000D00000010D00000000N000010000
000000271301343095672123092017    00000000000000000700D00001000D00000010D00000000N000010000
000000272301343095672124092017    00000000000000000700D00001000D00000010D00000000N000010000
000000273301343095672125092017074300010830000000340700D00001000D00000010D00000000N000010000
000000274301343095672126092017073500010830000000390700D00001000D00000010D00000000N000010000
000000275301343095672127092017074500010830000000310700D00001000D00000010D00000000N000010000
000000276301343095672128092017073300010830000001240700D00001000D00000010D00000000N000010000
000000277301343095672129092017071600010830000000530700D00001000D00000010D00000000N000010000
000000278301343095672130092017100200000000000006420700D00001000D00000010D00000000N000010000
000000279301621760230001092017073700010830000000400700D00001000D00000010D00000000N000010000
000000280301621760230002092017    00000000000000000700D00001000D00000010D00000000N000010000
000000281301621760230003092017    00000000000000000700D00001000D00000010D00000000N000010000
000000282301621760230004092017080600010830000000000700D00001000D00000010D00000000N000010000
000000283301621760230005092017074200010830000000210700D00001000D00000010D00000000N000010000
000000284301621760230006092017074700010820000000000700D00001000D00000010D00000000N001010000
000000285301621760230007092017080000010830000000000700D00001000D00000010D00000000N000010000
000000286301621760230008092017    00010000000000000700D00001000D00000010D00000000N000010000
000000287301621760230009092017    00000000000000000700D00001000D00000010D00000000N000010000
000000288301621760230010092017    00000000000000000700D00001000D00000010D00000000N000010000
000000289301621760230011092017080000010830000000000700D00001000D00000010D00000000N000010000
000000290301621760230012092017080000010830000000000700D00001000D00000010D00000000N000010000
000000291301621760230013092017080000010830000000000700D00001000D00000010D00000000N000010000
000000292301621760230014092017094300010716000000000700D00001000D00000010D00000000N011410000
000000293301621760230015092017074900010830000000110700D00001000D00000010D00000000N000010000
000000294301621760230016092017    00000000000000000700D00001000D00000010D00000000N000010000
000000295301621760230017092017    00000000000000000700D00001000D00000010D00000000N000010000
000000296301621760230018092017074200010830000000340700D00001000D00000010D00000000N000010000
000000297301621760230019092017075500010830000000000700D00001000D00000010D00000000N000010000
000000298301621760230020092017073500010830000000250700D00001000D00000010D00000000N000010000
000000299301621760230021092017080000010830000000110700D00001000D00000010D00000000N000010000
000000300301621760230022092017073100010830000000000700D00001000D00000010D00000000N000010000
000000301301621760230023092017    00000000000000000700D00001000D00000010D00000000N000010000
000000302301621760230024092017    00000000000000000700D00001000D00000010D00000000N000010000
000000303301621760230025092017075200010830000000000700D00001000D00000010D00000000N000010000
000000304301621760230026092017075000010830000000000700D00001000D00000010D00000000N000010000
000000305301621760230027092017073200010830000000340700D00001000D00000010D00000000N000010000
000000306301621760230028092017075000010820000000000700D00001000D00000010D00000000N001010000
000000307301621760230029092017071800010830000000490700D00001000D00000010D00000000N000010000
000000308301621760230030092017080200000000000008110700D00001000D00000010D00000000N000010000
000000309302105313595701092017084400010806000000000700D00001000D00000010D00000000N002410000
000000310302105313595702092017    00000000000000000700D00001000D00000010D00000000N000010000
000000311302105313595703092017    00000000000000000700D00001000D00000010D00000000N000010000
000000312302105313595704092017091000010708000000000700D00001000D00000010D00000000N012210000
000000313302105313595705092017083000010740000000000700D00001000D00000010D00000000N005010000
000000314302105313595706092017075900010830000000000700D00001000D00000010D00000000N000010000
000000315302105313595707092017080000010830000000000700D00001000D00000010D00000000N000010000
000000316302105313595708092017    00010000000000000700D00001000D00000010D00000000N000010000
000000317302105313595709092017    00000000000000000700D00001000D00000010D00000000N000010000
000000318302105313595710092017    00000000000000000700D00001000D00000010D00000000N000010000
000000319302105313595711092017080000010830000000000700D00001000D00000010D00000000N000010000
000000320302105313595712092017080000010830000000000700D00001000D00000010D00000000N000010000
000000321302105313595713092017080000010830000000000700D00001000D00000010D00000000N000010000
000000322302105313595714092017090400010627000000000700D00001000D00000010D00000000N020310000
000000323302105313595715092017073100010830000004280700D00001000D00000010D00000000N000010000
000000324302105313595716092017    00000000000000000700D00001000D00000010D00000000N000010000
000000325302105313595717092017    00000000000000000700D00001000D00000010D00000000N000010000
000000326302105313595718092017072500010830000000000700D00001000D00000010D00000000N000010000
000000327302105313595719092017072800010819000000000700D00001000D00000010D00000000N001110000
000000328302105313595720092017094200010611000000000700D00001000D00000010D00000000N021910000
000000329302105313595721092017073000010817000000000700D00001000D00000010D00000000N001310000
000000330302105313595722092017072900010830000000270700D00001000D00000010D00000000N000010000
000000331302105313595723092017    00000000000000000700D00001000D00000010D00000000N000010000
000000332302105313595724092017    00000000000000000700D00001000D00000010D00000000N000010000
000000333302105313595725092017072600010830000000000700D00001000D00000010D00000000N000010000
000000334302105313595726092017072600010818000000000700D00001000D00000010D00000000N001210000
000000335302105313595727092017073100010816000000000700D00001000D00000010D00000000N001410000
000000336302105313595728092017073200010815000000000700D00001000D00000010D00000000N001510000
000000337302105313595729092017091100010725000000000700D00001000D00000010D00000000N010510000
000000338302105313595730092017091200000000000006290700D00001000D00000010D00000000N000010000
000000339301638874757501092017080000010830000001260700D00001000D00000010D00000000N000010000
000000340301638874757502092017    00000000000000000700D00001000D00000010D00000000N000010000
000000341301638874757503092017    00000000000000000700D00001000D00000010D00000000N000010000
000000342301638874757504092017080000010830000000000700D00001000D00000010D00000000N000010000
000000343301638874757505092017083100010820000000000700D00001000D00000010D00000000N001010000
000000344301638874757506092017081200010656000000000700D00001000D00000010D00000000N013410000
000000345301638874757507092017080000010830000000000700D00001000D00000010D00000000N000010000
000000346301638874757508092017    00010000000000000700D00001000D00000010D00000000N000010000
000000347301638874757509092017    00000000000000000700D00001000D00000010D00000000N000010000
000000348301638874757510092017    00000000000000000700D00001000D00000010D00000000N000010000
000000349301638874757511092017080000010830000000000700D00001000D00000010D00000000N000010000
000000350301638874757512092017080000010830000000000700D00001000D00000010D00000000N000010000
000000351301638874757513092017080000010830000000000700D00001000D00000010D00000000N000010000
000000352301638874757514092017081000010830000000000700D00001000D00000010D00000000N000010000
000000353301638874757515092017081800010820000000000700D00001000D00000010D00000000N001010000
000000354301638874757516092017    00000000000000000700D00001000D00000010D00000000N000010000
000000355301638874757517092017    00000000000000000700D00001000D00000010D00000000N000010000
000000356301638874757518092017080200010830000000000700D00001000D00000010D00000000N000010000
000000357301638874757519092017080700010830000000000700D00001000D00000010D00000000N000010000
000000358301638874757520092017082600010712000000000700D00001000D00000010D00000000N011810000
000000359301638874757521092017080800010830000000000700D00001000D00000010D00000000N000010000
000000360301638874757522092017081900010811000000000700D00001000D00000010D00000000N001910000
000000361301638874757523092017    00000000000000000700D00001000D00000010D00000000N000010000
000000362301638874757524092017    00000000000000000700D00001000D00000010D00000000N000010000
000000363301638874757525092017080600010830000000000700D00001000D00000010D00000000N000010000
000000364301638874757526092017083000010800000000000700D00001000D00000010D00000000N003010000
000000365301638874757527092017081100010819000000000700D00001000D00000010D00000000N001110000
000000366301638874757528092017082300010807000000000700D00001000D00000010D00000000N002310000
000000367301638874757529092017083300010830000000000700D00001000D00000010D00000000N000010000
000000368301638874757530092017081700000000000004030700D00001000D00000010D00000000N000010000
000000369301419808827201092017093500010830000000450700D00001000D00000010D00000000N000010000
000000370301419808827202092017    00000000000000000700D00001000D00000010D00000000N000010000
000000371301419808827203092017    00000000000000000700D00001000D00000010D00000000N000010000
000000372301419808827204092017095000010757000000000700D00001000D00000010D00000000N003310000
000000373301419808827205092017092800010830000000000700D00001000D00000010D00000000N000010000
000000374301419808827206092017100000010626000000000700D00001000D00000010D00000000N020410000
000000375301419808827207092017080000010830000000000700D00001000D00000010D00000000N000010000
000000376301419808827208092017    00010000000000000700D00001000D00000010D00000000N000010000
000000377301419808827209092017    00000000000000000700D00001000D00000010D00000000N000010000
000000378301419808827210092017    00000000000000000700D00001000D00000010D00000000N000010000
000000379301419808827211092017080000010830000000000700D00001000D00000010D00000000N000010000
000000380301419808827212092017080000010830000000000700D00001000D00000010D00000000N000010000
000000381301419808827213092017080000010830000000000700D00001000D00000010D00000000N000010000
000000382301419808827214092017100000010830000001410700D00001000D00000010D00000000N000010000
000000383301419808827215092017092900010830000002190700D00001000D00000010D00000000N000010000
000000384301419808827216092017    00000000000000000700D00001000D00000010D00000000N000010000
000000385301419808827217092017    00000000000000000700D00001000D00000010D00000000N000010000
000000386301419808827218092017093700010830000000520700D00001000D00000010D00000000N000010000
000000387301419808827219092017093200010740000000000700D00001000D00000010D00000000N005010000
000000388301419808827220092017093200010830000001550700D00001000D00000010D00000000N000010000
000000389301419808827221092017093100010830000002380700D00001000D00000010D00000000N000010000
000000390301419808827222092017093100010731000000000700D00001000D00000010D00000000N005910000
000000391301419808827223092017    00000000000000000700D00001000D00000010D00000000N000010000
000000392301419808827224092017    00000000000000000700D00001000D00000010D00000000N000010000
000000393301419808827225092017093500010830000000280700D00001000D00000010D00000000N000010000
000000394301419808827226092017093100010830000000450700D00001000D00000010D00000000N000010000
000000395301419808827227092017093200010830000001060700D00001000D00000010D00000000N000010000
000000396301419808827228092017092900010830000001250700D00001000D00000010D00000000N000010000
000000397301419808827229092017093000010830000002220700D00001000D00000010D00000000N000010000
000000398301419808827230092017110100000000000006160700D00001000D00000010D00000000N000010000
000000399302072457273701092017091200010830000001020700D00001000D00000010D00000000N000010000
000000400302072457273702092017    00000000000000000700D00001000D00000010D00000000N000010000
000000401302072457273703092017    00000000000000000700D00001000D00000010D00000000N000010000
000000402302072457273704092017083900010830000000000700D00001000D00000010D00000000N000010000
000000403302072457273705092017092100010830000000120700D00001000D00000010D00000000N000010000
000000404302072457273706092017095100010630000000000700D00001000D00000010D00000000N020010000
000000405302072457273707092017080000010830000000000700D00001000D00000010D00000000N000010000
000000406302072457273708092017    00010000000000000700D00001000D00000010D00000000N000010000
000000407302072457273709092017    00000000000000000700D00001000D00000010D00000000N000010000
000000408302072457273710092017    00000000000000000700D00001000D00000010D00000000N000010000
000000409302072457273711092017080000010830000000000700D00001000D00000010D00000000N000010000
000000410302072457273712092017080000010830000001300700D00001000D00000010D00000000N000010000
000000411302072457273713092017080000010830000000000700D00001000D00000010D00000000N000010000
000000412302072457273714092017090400010830000004540700D00001000D00000010D01580000N000010000
000000413302072457273715092017102200010656000000000700D00001000D00000010D00000000N013410000
000000414302072457273716092017    00000000000000000700D00001000D00000010D00000000N000010000
000000415302072457273717092017    00000000000000000700D00001000D00000010D00000000N000010000
000000416302072457273718092017091200010746000000000700D00001000D00000010D00000000N004410000
000000417302072457273719092017091000010830000000000700D00001000D00000010D00000000N000010000
000000418302072457273720092017085500010830000002310700D00001000D00000010D00000000N000010000
000000419302072457273721092017085400010830000000480700D00001000D00000010D00000000N000010000
000000420302072457273722092017090300010714000000000700D00001000D00000010D00000000N011610000
000000421302072457273723092017    00000000000000000700D00001000D00000010D00000000N000010000
000000422302072457273724092017    00000000000000000700D00001000D00000010D00000000N000010000
000000423302072457273725092017085200010441000000000700D00001000D00000010D00000000N034910000
000000424302072457273726092017090900010830000001160700D00001000D00000010D00000000N000010000
000000425302072457273727092017091000010730000000000700D00001000D00000010D00000000N010010000
000000426302072457273728092017083000010830000000580700D00001000D00000010D00000000N000010000
000000427302072457273729092017113600010819000000000700D00001000D00000010D00000000N001110000
000000428302072457273730092017    00000000000000000700D00001000D00000010D00000000N000010000
000000429302040976330001092017095700010713000000000700D00001000D00000010D00000000N011710000
000000430302040976330002092017    00000000000000000700D00001000D00000010D00000000N000010000
000000431302040976330003092017    00000000000000000700D00001000D00000010D00000000N000010000
000000432302040976330004092017075500010830000000130700D00001000D00000010D00000000N000010000
000000433302040976330005092017084600010808000000000700D00001000D00000010D00000000N002210000
000000434302040976330006092017083700010744000000000700D00001000D00000010D00000000N004610000
000000435302040976330007092017080000010830000000000700D00001000D00000010D00000000N000010000
000000436302040976330008092017    00010000000000000700D00001000D00000010D00000000N000010000
000000437302040976330009092017    00000000000000000700D00001000D00000010D00000000N000010000
000000438302040976330010092017    00000000000000000700D00001000D00000010D00000000N000010000
000000439302040976330011092017080000010830000000000700D00001000D00000010D00000000N000010000
000000440302040976330012092017080000010830000000000700D00001000D00000010D00000000N000010000
000000441302040976330013092017080000010830000000000700D00001000D00000010D00000000N000010000
000000442302040976330014092017075200010830000001020700D00001000D00000010D00000000N000010000
000000443302040976330015092017090500010716000000000700D00001000D00000010D00000000N011410000
000000444302040976330016092017    00000000000000000700D00001000D00000010D00000000N000010000
000000445302040976330017092017    00000000000000000700D00001000D00000010D00000000N000010000
000000446302040976330018092017071000010830000000510700D00001000D00000010D00000000N000010000
000000447302040976330019092017064600010830000001230700D00001000D00000010D00000000N000010000
000000448302040976330020092017085200010757000000000700D00001000D00000010D00000000N003310000
000000449302040976330021092017090200010830000000400700D00001000D00000010D00000000N000010000
000000450302040976330022092017080700010653000000000700D00001000D00000010D00000000N013710000
000000451302040976330023092017    00000000000000000700D00001000D00000010D00000000N000010000
000000452302040976330024092017    00000000000000000700D00001000D00000010D00000000N000010000
000000453302040976330025092017063600010830000001230700D00001000D00000010D00000000N000010000
000000454302040976330026092017083300010830000000420700D00001000D00000010D00000000N000010000
000000455302040976330027092017081800010830000000270700D00001000D00000010D00000000N000010000
000000456302040976330028092017071400010830000002200700D00001000D00000010D00000000N000010000
000000457302040976330029092017092800010643000000000700D00001000D00000010D00000000N014710000
000000458302040976330030092017094500000000000002190700D00001000D00000010D00000000N000010000
000000459302035665747101092017080400010830000000000700D00001000D00000010D00000000N000010000
000000460302035665747102092017    00000000000000000700D00001000D00000010D00000000N000010000
000000461302035665747103092017    00000000000000000700D00001000D00000010D00000000N000010000
000000462302035665747104092017080500010830000000180700D00001000D00000010D00000000N000010000
000000463302035665747105092017074400010830000000000700D00001000D00000010D00000000N000010000
000000464302035665747106092017080800010528000000000700D00001000D00000010D00000000N030210000
000000465302035665747107092017080000010830000000000700D00001000D00000010D00000000N000010000
000000466302035665747108092017    00010000000000000700D00001000D00000010D00000000N000010000
000000467302035665747109092017    00000000000000000700D00001000D00000010D00000000N000010000
000000468302035665747110092017    00000000000000000700D00001000D00000010D00000000N000010000
000000469302035665747111092017080000010830000000000700D00001000D00000010D00000000N000010000
000000470302035665747112092017080000010830000001300700D00001000D00000010D00000000N000010000
000000471302035665747113092017080000010830000000000700D00001000D00000010D00000000N000010000
000000472302035665747114092017075800010753000000000700D00001000D00000010D00000000N003710000
000000473302035665747115092017075000010830000000580700D00001000D00000010D00000000N000010000
000000474302035665747116092017151900000000000001540700D00001000D00000010D00000000N000010000
000000475302035665747117092017    00000000000000000700D00001000D00000010D00000000N000010000
000000476302035665747118092017075600010830000000300700D00001000D00000010D00000000N000010000
000000477302035665747119092017080800010830000000000700D00001000D00000010D00000000N000010000
000000478302035665747120092017073600010830000000390700D00001000D00000010D00000000N000010000
000000479302035665747121092017080200010830000000130700D00001000D00000010D00000000N000010000
000000480302035665747122092017075900010816000000000700D00001000D00000010D00000000N001410000
000000481302035665747123092017    00000000000000000700D00001000D00000010D00000000N000010000
000000482302035665747124092017    00000000000000000700D00001000D00000010D00000000N000010000
000000483302035665747125092017080000010721000000000700D00001000D00000010D00000000N010910000
000000484302035665747126092017075800010814000000000700D00001000D00000010D00000000N001610000
000000485302035665747127092017080200010830000000000700D00001000D00000010D00000000N000010000
000000486302035665747128092017080100010830000000000700D00001000D00000010D00000000N000010000
000000487302035665747129092017075000010820000000000700D00001000D00000010D00000000N001010000
000000488302035665747130092017    00000000000000000700D00001000D00000010D00000000N000010000
000000489302099659889201092017083500010830000000000700D00001000D00000010D00000000N000010000
000000490302099659889202092017    00000000000000000700D00001000D00000010D00000000N000010000
000000491302099659889203092017    00000000000000000700D00001000D00000010D00000000N000010000
000000492302099659889204092017081900010830000000000700D00001000D00000010D00000000N000010000
000000493302099659889205092017081600010830000000240700D00001000D00000010D00000000N000010000
000000494302099659889206092017081800010719000000000700D00001000D00000010D00000000N011110000
000000495302099659889207092017080000010830000000000700D00001000D00000010D00000000N000010000
000000496302099659889208092017    00010000000000000700D00001000D00000010D00000000N000010000
000000497302099659889209092017    00000000000000000700D00001000D00000010D00000000N000010000
000000498302099659889210092017    00000000000000000700D00001000D00000010D00000000N000010000
000000499302099659889211092017080000010830000000000700D00001000D00000010D00000000N000010000
000000500302099659889212092017080000010830000000000700D00001000D00000010D00000000N000010000
000000501302099659889213092017080000010830000000000700D00001000D00000010D00000000N000010000
000000502302099659889214092017083800010830000000000700D00001000D00000010D00000000N000010000
000000503302099659889215092017083500010830000003240700D00001000D00000010D00000000N000010000
000000504302099659889216092017    00000000000000000700D00001000D00000010D00000000N000010000
000000505302099659889217092017    00000000000000000700D00001000D00000010D00000000N000010000
000000506302099659889218092017082700010830000000000700D00001000D00000010D00000000N000010000
000000507302099659889219092017084900010757000000000700D00001000D00000010D00000000N003310000
000000508302099659889220092017084300010830000000570700D00001000D00000010D00000000N000010000
000000509302099659889221092017082800010830000001320700D00001000D00000010D00000000N000010000
000000510302099659889222092017084600010818000000000700D00001000D00000010D00000000N001210000
000000511302099659889223092017    00000000000000000700D00001000D00000010D00000000N000010000
000000512302099659889224092017    00000000000000000700D00001000D00000010D00000000N000010000
000000513302099659889225092017083000010830000000000700D00001000D00000010D00000000N000010000
000000514302099659889226092017083200010830000000000700D00001000D00000010D00000000N000010000
000000515302099659889227092017085600010830000000470700D00001000D00000010D00000000N000010000
000000516302099659889228092017083300010814000000000700D00001000D00000010D00000000N001610000
000000517302099659889229092017085400010755000000000700D00001000D00000010D00000000N003510000
000000518302099659889230092017    00000000000000000700D00001000D00000010D00000000N000010000
000000519302070984400401092017083200010805000000000700D00001000D00000010D00000000N002510000
000000520302070984400402092017    00000000000000000700D00001000D00000010D00000000N000010000
000000521302070984400403092017    00000000000000000700D00001000D00000010D00000000N000010000
000000522302070984400404092017082900010806000000000700D00001000D00000010D00000000N002410000
000000523302070984400405092017081600010830000000000700D00001000D00000010D00000000N000010000
000000524302070984400406092017081800010805000000000700D00001000D00000010D00000000N002510000
000000525302070984400407092017080000010830000000000700D00001000D00000010D00000000N000010000
000000526302070984400408092017    00010000000000000700D00001000D00000010D00000000N000010000
000000527302070984400409092017    00000000000000000700D00001000D00000010D00000000N000010000
000000528302070984400410092017    00000000000000000700D00001000D00000010D00000000N000010000
000000529302070984400411092017080000010830000000000700D00001000D00000010D00000000N000010000
000000530302070984400412092017080000010830000000000700D00001000D00000010D00000000N000010000
000000531302070984400413092017080000010830000000000700D00001000D00000010D00000000N000010000
000000532302070984400414092017083800010809000000000700D00001000D00000010D00000000N002110000
000000533302070984400415092017083500010830000003330700D00001000D00000010D00000000N000010000
000000534302070984400416092017    00000000000000000700D00001000D00000010D00000000N000010000
000000535302070984400417092017    00000000000000000700D00001000D00000010D00000000N000010000
000000536302070984400418092017082700010830000001310700D00001000D00000010D00000000N000010000
000000537302070984400419092017084900010804000000000700D00001000D00000010D00000000N002610000
000000538302070984400420092017084300010830000000130700D00001000D00000010D00000000N000010000
000000539302070984400421092017082800010830000001320700D00001000D00000010D00000000N000010000
000000540302070984400422092017084100010755000000000700D00001000D00000010D00000000N003510000
000000541302070984400423092017    00000000000000000700D00001000D00000010D00000000N000010000
000000542302070984400424092017    00000000000000000700D00001000D00000010D00000000N000010000
000000543302070984400425092017083000010830000000000700D00001000D00000010D00000000N000010000
000000544302070984400426092017083200010815000000000700D00001000D00000010D00000000N001510000
000000545302070984400427092017083900010830000000500700D00001000D00000010D00000000N000010000
000000546302070984400428092017082900010619000000000700D00001000D00000010D00000000N021110000
000000547302070984400429092017083400010800000000000700D00001000D00000010D00000000N003010000
000000548302070984400430092017092200000000000006280700D00001000D00000010D00000000N000010000
000000549302042923898801092017082800010830000000100700D00001000D00000010D00000000N000010000
000000550302042923898802092017    00000000000000000700D00001000D00000010D00000000N000010000
000000551302042923898803092017    00000000000000000700D00001000D00000010D00000000N000010000
000000552302042923898804092017080600010830000000000700D00001000D00000010D00000000N000010000
000000553302042923898805092017083000010809000000000700D00001000D00000010D00000000N002110000
000000554302042923898806092017083000010830000000000700D00001000D00000010D00000000N000010000
000000555302042923898807092017080000010830000000000700D00001000D00000010D00000000N000010000
000000556302042923898808092017    00010000000000000700D00001000D00000010D00000000N000010000
000000557302042923898809092017    00000000000000000700D00001000D00000010D00000000N000010000
000000558302042923898810092017    00000000000000000700D00001000D00000010D00000000N000010000
000000559302042923898811092017080000010830000000000700D00001000D00000010D00000000N000010000
000000560302042923898812092017080000010830000000000700D00001000D00000010D00000000N000010000
000000561302042923898813092017080000010830000000000700D00001000D00000010D00000000N000010000
000000562302042923898814092017080700010830000000000700D00001000D00000010D00000000N000010000
000000563302042923898815092017082100010830000003170700D00001000D00000010D00000000N000010000
000000564302042923898816092017    00000000000000000700D00001000D00000010D00000000N000010000
000000565302042923898817092017    00000000000000000700D00001000D00000010D00000000N000010000
000000566302042923898818092017091900010830000000270700D00001000D00000010D00000000N000010000
000000567302042923898819092017075700010800000000000700D00001000D00000010D00000000N003010000
000000568302042923898820092017075900010830000000000700D00001000D00000010D00000000N000010000
000000569302042923898821092017082000010758000000000700D00001000D00000010D00000000N003210000
000000570302042923898822092017082000010830000002220700D00001000D00000010D00000000N000010000
000000571302042923898823092017    00000000000000000700D00001000D00000010D00000000N000010000
000000572302042923898824092017    00000000000000000700D00001000D00000010D00000000N000010000
000000573302042923898825092017082800010830000000160700D00001000D00000010D00000000N000010000
000000574302042923898826092017081700010743000000000700D00001000D00000010D00000000N004710000
000000575302042923898827092017080600010754000000000700D00001000D00000010D00000000N003610000
000000576302042923898828092017080300010323000000000700D00001000D00000010D00000000N003710000
000000577302042923898829092017    00010740000000000700D00001000D00000010D00000000N000010000
000000578302042923898830092017    00000000000000000700D00001000D00000010D00000000N000010000
000000579301388249742301092017093000060600000000000700D00001000D00000010D00000000N000010000
000000580301388249742302092017    00000000000000000700D00001000D00000010D00000000N000010000
000000581301388249742303092017    00000000000000000700D00001000D00000010D00000000N000010000
000000582301388249742304092017085600060600000000440700D00001000D00000010D00000000N000010000
000000583301388249742305092017085500060600000000530700D00001000D00000010D00000000N000010000
000000584301388249742306092017094100060600000001000700D00001000D00000010D00000000N000010000
000000585301388249742307092017080000060600000000000700D00001000D00000010D00000000N000010000
000000586301388249742308092017    00060000000000000700D00001000D00000010D00000000N000010000
000000587301388249742309092017    00000000000000000700D00001000D00000010D00000000N000010000
000000588301388249742310092017    00000000000000000700D00001000D00000010D00000000N000010000
000000589301388249742311092017090000060600000000000700D00001000D00000010D00000000N000010000
000000590301388249742312092017090000060600000000000700D00001000D00000010D00000000N000010000
000000591301388249742313092017090000060600000000000700D00001000D00000010D00000000N000010000
000000592301388249742314092017090000060600000000440700D00001000D00000010D00000000N000010000
000000593301388249742315092017093500060600000000170700D00001000D00000010D00000000N000010000
000000594301388249742316092017    00000000000000000700D00001000D00000010D00000000N000010000
000000595301388249742317092017    00000000000000000700D00001000D00000010D00000000N000010000
000000596301388249742318092017085300060600000001010700D00001000D00000010D00000000N000010000
000000597301388249742319092017085300060600000001280700D00001000D00000010D00000000N000010000
000000598301388249742320092017083700060600000001280700D00001000D00000010D00000000N000010000
000000599301388249742321092017083600060600000001150700D00001000D00000010D00000000N000010000
000000600301388249742322092017095400060454000000000700D00001000D00000010D00000000N010610000
000000601301388249742323092017    00000000000000000700D00001000D00000010D00000000N000010000
000000602301388249742324092017    00000000000000000700D00001000D00000010D00000000N000010000
000000603301388249742325092017085500060600000000560700D00001000D00000010D00000000N000010000
000000604301388249742326092017083400060600000001150700D00001000D00000010D00000000N000010000
000000605301388249742327092017103200060527000000000700D00001000D00000010D00000000N003310000
000000606301388249742328092017085500060600000000460700D00001000D00000010D00000000N000010000
000000607301388249742329092017091200060600000000520700D00001000D00000010D00000000N000010000
000000608301388249742330092017    00000000000000000700D00001000D00000010D00000000N000010000
000000609302105133377801092017074600050600000000140700D00001000D00000010D00000000N000010000
000000610302105133377802092017    00000000000000000700D00001000D00000010D00000000N000010000
000000611302105133377803092017    00000000000000000700D00001000D00000010D00000000N000010000
000000612302105133377804092017080300050600000000190700D00001000D00000010D00000000N000010000
000000613302105133377805092017074500050600000000360700D00001000D00000010D00000000N000010000
000000614302105133377806092017074700050600000000130700D00001000D00000010D00000000N000010000
000000615302105133377807092017080000050600000000000700D00001000D00000010D00000000N000010000
000000616302105133377808092017    00050000000000000700D00001000D00000010D00000000N000010000
000000617302105133377809092017    00000000000000000700D00001000D00000010D00000000N000010000
000000618302105133377810092017    00000000000000000700D00001000D00000010D00000000N000010000
000000619302105133377811092017080000050600000000000700D00001000D00000010D00000000N000010000
000000620302105133377812092017080000050600000000000700D00001000D00000010D00000000N000010000
000000621302105133377813092017080000050600000000000700D00001000D00000010D00000000N000010000
000000622302105133377814092017081800050600000000000700D00001000D00000010D00000000N000010000
000000623302105133377815092017075700050507000000000700D00001000D00000010D00000000N005310000
000000624302105133377816092017    00000000000000000700D00001000D00000010D00000000N000010000
000000625302105133377817092017    00000000000000000700D00001000D00000010D00000000N000010000
000000626302105133377818092017075100050600000000150700D00001000D00000010D00000000N000010000
000000627302105133377819092017101300050531000000000700D00001000D00000010D00000000N002910000
000000628302105133377820092017095300050600000000000700D00001000D00000010D00000000N000010000
000000629302105133377821092017074900050600000000110700D00001000D00000010D00000000N000010000
000000630302105133377822092017075000050600000000160700D00001000D00000010D00000000N000010000
000000631302105133377823092017    00000000000000000700D00001000D00000010D00000000N000010000
000000632302105133377824092017    00000000000000000700D00001000D00000010D00000000N000010000
000000633302105133377825092017075900050600000000000700D00001000D00000010D00000000N000010000
000000634302105133377826092017080400050600000000100700D00001000D00000010D00000000N000010000
000000635302105133377827092017080800050600000000000700D00001000D00000010D00000000N000010000
000000636302105133377828092017072300050600000000570700D00001000D00000010D00000000N000010000
000000637302105133377829092017075700050453000000000700D00001000D00000010D00000000N010710000
000000638302105133377830092017    00000000000000000700D00001000D00000010D00000000N000010000
000000639302105320409601092017    00000000000000000700D00001000D00000010D00000000N000010000
000000640302105320409602092017    00000000000000000700D00001000D00000010D00000000N000010000
000000641302105320409603092017    00000000000000000700D00001000D00000010D00000000N000010000
000000642302105320409604092017080000010830000000000700D00001000D00000010D00000000N000010000
000000643302105320409605092017080000010830000000590700D00001000D00000010D00000000N000010000
000000644302105320409606092017075200010830000000410700D00001000D00000010D00000000N000010000
000000645302105320409607092017080000010830000000000700D00001000D00000010D00000000N000010000
000000646302105320409608092017    00010000000000000700D00001000D00000010D00000000N000010000
000000647302105320409609092017    00000000000000000700D00001000D00000010D00000000N000010000
000000648302105320409610092017    00000000000000000700D00001000D00000010D00000000N000010000
000000649302105320409611092017080000010830000000000700D00001000D00000010D00000000N000010000
000000650302105320409612092017080000010830000000000700D00001000D00000010D00000000N000010000
000000651302105320409613092017080000010830000000000700D00001000D00000010D00000000N000010000
000000652302105320409614092017074500010830000000550700D00001000D00000010D00000000N000010000
000000653302105320409615092017080000010830000001150700D00001000D00000010D00000000N000010000
000000654302105320409616092017    00000000000000000700D00001000D00000010D00000000N000010000
000000655302105320409617092017    00000000000000000700D00001000D00000010D00000000N000010000
000000656302105320409618092017080300010807000000000700D00001000D00000010D00000000N002310000
000000657302105320409619092017074200010830000000490700D00001000D00000010D00000000N000010000
000000658302105320409620092017073100010830000001300700D00001000D00000010D00000000N000010000
000000659302105320409621092017082700010830000000290700D00001000D00000010D00000000N000010000
000000660302105320409622092017073300010830000000380700D00001000D00000010D00000000N000010000
000000661302105320409623092017    00000000000000000700D00001000D00000010D00000000N000010000
000000662302105320409624092017    00000000000000000700D00001000D00000010D00000000N000010000
000000663302105320409625092017073100010830000000520700D00001000D00000010D00000000N000010000
000000664302105320409626092017080500010811000000000700D00001000D00000010D00000000N001910000
000000665302105320409627092017073400010830000002340700D00001000D00000010D00000000N000010000
000000666302105320409628092017082800010751000000000700D00001000D00000010D00000000N003910000
000000667302105320409629092017073200010830000000570700D00001000D00000010D00000000N000010000
000000668302105320409630092017    00000000000000000700D00001000D00000010D00000000N000010000
000000669301289697769601092017    00000000000000000700D00001000D00000010D00000000N000010000
000000670301289697769602092017    00000000000000000700D00001000D00000010D00000000N000010000
000000671301289697769603092017    00000000000000000700D00001000D00000010D00000000N000010000
000000672301289697769604092017    00000000000000000700D00001000D00000010D00000000N000010000
000000673301289697769605092017    00000000000000000700D00001000D00000010D00000000N000010000
000000674301289697769606092017    00000000000000000700D00001000D00000010D00000000N000010000
000000675301289697769607092017    00000000000000000700D00001000D00000010D00000000N000010000
000000676301289697769608092017    00000000000000000700D00001000D00000010D00000000N000010000
000000677301289697769609092017    00000000000000000700D00001000D00000010D00000000N000010000
000000678301289697769610092017    00000000000000000700D00001000D00000010D00000000N000010000
000000679301289697769611092017    00000000000000000700D00001000D00000010D00000000N000010000
000000680301289697769612092017    00000000000000000700D00001000D00000010D00000000N000010000
000000681301289697769613092017    00000000000000000700D00001000D00000010D00000000N000010000
000000682301289697769614092017    00000000000000000700D00001000D00000010D00000000N000010000
000000683301289697769615092017    00000000000000000700D00001000D00000010D00000000N000010000
000000684301289697769616092017    00000000000000000700D00001000D00000010D00000000N000010000
000000685301289697769617092017    00000000000000000700D00001000D00000010D00000000N000010000
000000686301289697769618092017    00000000000000000700D00001000D00000010D00000000N000010000
000000687301289697769619092017    00000000000000000700D00001000D00000010D00000000N000010000
000000688301289697769620092017    00000000000000000700D00001000D00000010D00000000N000010000
000000689301289697769621092017    00000000000000000700D00001000D00000010D00000000N000010000
000000690301289697769622092017    00000000000000000700D00001000D00000010D00000000N000010000
000000691301289697769623092017    00000000000000000700D00001000D00000010D00000000N000010000
000000692301289697769624092017    00000000000000000700D00001000D00000010D00000000N000010000
000000693301289697769625092017    00000000000000000700D00001000D00000010D00000000N000010000
000000694301289697769626092017    00000000000000000700D00001000D00000010D00000000N000010000
000000695301289697769627092017    00000000000000000700D00001000D00000010D00000000N000010000
000000696301289697769628092017    00000000000000000700D00001000D00000010D00000000N000010000
000000697301289697769629092017    00000000000000000700D00001000D00000010D00000000N000010000
000000698301289697769630092017    00000000000000000700D00001000D00000010D00000000N000010000
000000699301395501872401092017    00000000000000000700D00001000D00000010D00000000N000010000
000000700301395501872402092017    00000000000000000700D00001000D00000010D00000000N000010000
000000701301395501872403092017    00000000000000000700D00001000D00000010D00000000N000010000
000000702301395501872404092017    00000000000000000700D00001000D00000010D00000000N000010000
000000703301395501872405092017    00000000000000000700D00001000D00000010D00000000N000010000
000000704301395501872406092017    00000000000000000700D00001000D00000010D00000000N000010000
000000705301395501872407092017    00000000000000000700D00001000D00000010D00000000N000010000
000000706301395501872408092017    00000000000000000700D00001000D00000010D00000000N000010000
000000707301395501872409092017    00000000000000000700D00001000D00000010D00000000N000010000
000000708301395501872410092017    00000000000000000700D00001000D00000010D00000000N000010000
000000709301395501872411092017    00000000000000000700D00001000D00000010D00000000N000010000
000000710301395501872412092017    00000000000000000700D00001000D00000010D00000000N000010000
000000711301395501872413092017    00000000000000000700D00001000D00000010D00000000N000010000
000000712301395501872414092017    00000000000000000700D00001000D00000010D00000000N000010000
000000713301395501872415092017    00000000000000000700D00001000D00000010D00000000N000010000
000000714301395501872416092017    00000000000000000700D00001000D00000010D00000000N000010000
000000715301395501872417092017    00000000000000000700D00001000D00000010D00000000N000010000
000000716301395501872418092017    00000000000000000700D00001000D00000010D00000000N000010000
000000717301395501872419092017    00000000000000000700D00001000D00000010D00000000N000010000
000000718301395501872420092017    00000000000000000700D00001000D00000010D00000000N000010000
000000719301395501872421092017    00000000000000000700D00001000D00000010D00000000N000010000
000000720301395501872422092017    00000000000000000700D00001000D00000010D00000000N000010000
000000721301395501872423092017    00000000000000000700D00001000D00000010D00000000N000010000
000000722301395501872424092017    00000000000000000700D00001000D00000010D00000000N000010000
000000723301395501872425092017    00000000000000000700D00001000D00000010D00000000N000010000
000000724301395501872426092017    00000000000000000700D00001000D00000010D00000000N000010000
000000725301395501872427092017    000000000