0000000011101808295000190000000000000RAVEL TECNOLOGIA LTDA  EPP                                                                                                                            0101201613042016130420161137
000000002200010800173013001400
000000003200020800173012001300
000000004200030730170012001300
000000009301227954241401012016    00010000000000000000D00000000N00000000N00000000N000010000
000000010301227954241402012016    00000000000000000000D00000000N00000000N00000000N000010000
000000011301227954241403012016    00000000000000000000D00000000N00000000N00000000N000010000
000000012301227954241404012016    00010929000000190000D00000000N00000000N00000000N000010000
000000013301227954241405012016075300010830000000310000D00000000N00000000N00000000N000010000
000000014301227954241406012016075400010830000000010000D00000000N00000000N00000000N000010000
000000015301227954241407012016075300010830000000120000D00000000N00000000N00000000N000010000
000000016301227954241408012016075500010830000000000000D00000000N00000000N00000000N000010000
000000017301227954241409012016    00000000000000000000D00000000N00000000N00000000N000010000
000000018301227954241410012016    00000000000000000000D00000000N00000000N00000000N000010000
000000019301227954241411012016    00010830000000000000D00000000N00000000N00000000N000010000
000000020301227954241412012016104700010543000000340000D00000000N00000000N00000000N024710000
000000021301227954241413012016075500010830000000000000D00000000N00000000N00000000N000010000
000000022301227954241414012016075800010830000000010000D00000000N00000000N00000000N000010000
000000023301227954241415012016075500010830000000000000D00000000N00000000N00000000N000010000
000000024301227954241416012016    00000000000000000000D00000000N00000000N00000000N000010000
000000025301227954241417012016    00000000000000000000D00000000N00000000N00000000N000010000
000000026301227954241418012016    00010932000000200000D00000000N00000000N00000000N000010000
000000027301227954241419012016075700010830000000160000D00000000N00000000N00000000N000010000
000000028301227954241420012016075800010830000000000000D00000000N00000000N00000000N000010000
000000029301227954241421012016075900010830000000240000D00000000N00000000N00000000N000010000
000000030301227954241422012016080800010816000000120000D00000000N00000000N00000000N000010000
000000031301227954241423012016    00000000000000000000D00000000N00000000N00000000N000010000
000000032301227954241424012016    00000000000000000000D00000000N00000000N00000000N000010000
000000033301227954241425012016    00010951000000010000D00000000N00000000N00000000N000010000
000000034301227954241426012016075700010830000000230000D00000000N00000000N00000000N000010000
000000035301227954241427012016100400010830000000000000D00000000N00000000N00000000N000010000
000000036301227954241428012016075700010830000000000000D00000000N00000000N00000000N000010000
000000037301227954241429012016075600010830000000000000D00000000N00000000N00000000N000010000
000000038301227954241430012016    00000000000000000000D00000000N00000000N00000000N000010000
000000039301227954241431012016    00000000000000000000D00000000N00000000N00000000N000010000
000000040301227954241401022016    00010930000000000000D00000000N00000000N00000000N000010000
000000041301227954241402022016075700010830000000060000D00000000N00000000N00000000N000010000
000000042301227954241403022016075600010830000000480000D00000000N00000000N00000000N000010000
000000043301227954241404022016075000010830000001390000D00000000N00000000N00000000N000010000
000000044301227954241405022016075800010830000000000000D00000000N00000000N00000000N000010000
000000045301227954241406022016    00000000000000000000D00000000N00000000N00000000N000010000
000000046301227954241407022016    00000000000000000000D00000000N00000000N00000000N000010000
000000047301227954241408022016    00010000000000000000D00000000N00000000N00000000N000010000
000000048301227954241409022016    00010000000000000000D00000000N00000000N00000000N000010000
000000049301227954241410022016075500010830000000290000D00000000N00000000N00000000N000010000
000000050301227954241411022016080300010830000000170000D00000000N00000000N00000000N000010000
000000051301227954241412022016075500010830000000110000D00000000N00000000N00000000N000010000
000000052301227954241413022016    00000000000000000000D00000000N00000000N00000000N000010000
000000053301227954241414022016    00000000000000000000D00000000N00000000N00000000N000010000
000000054301227954241415022016103600010554000000000000D00000000N00000000N00000000N023610000
000000055301227954241416022016075800010830000000320000D00000000N00000000N00000000N000010000
000000056301227954241417022016075500010830000000090000D00000000N00000000N00000000N000010000
000000057301227954241418022016075700010830000000080000D00000000N00000000N00000000N000010000
000000058301227954241419022016075500010830000000130000D00000000N00000000N00000000N000010000
000000059301227954241420022016    00000000000000000000D00000000N00000000N00000000N000010000
000000060301227954241421022016    00000000000000000000D00000000N00000000N00000000N000010000
000000061301227954241422022016072400010830000001120000D00000000N00000000N00000000N000010000
000000062301227954241423022016075400010830000000230000D00000000N00000000N00000000N000010000
000000063301227954241424022016075900010830000000080000D00000000N00000000N00000000N000010000
000000064301227954241425022016075400010830000000010000D00000000N00000000N00000000N000010000
000000065301227954241426022016075400010830000000190000D00000000N00000000N00000000N000010000
000000066301227954241427022016    00000000000000000000D00000000N00000000N00000000N000010000
000000067301227954241428022016    00000000000000000000D00000000N00000000N00000000N000010000
000000068301227954241429022016073000010830000001060000D00000000N00000000N00000000N000010000
000000069301227954241401032016075400010830000000230000D00000000N00000000N00000000N000010000
000000070301227954241402032016075700010830000001240000D00000000N00000000N00000000N000010000
000000071301227954241403032016075600010830000000250000D00000000N00000000N00000000N000010000
000000072301227954241404032016075600010830000000320000D00000000N00000000N00000000N000010000
000000073301227954241405032016    00000000000000000000D00000000N00000000N00000000N000010000
000000074301227954241406032016    00000000000000000000D00000000N00000000N00000000N000010000
000000075301227954241407032016073700010830000001040000D00000000N00000000N00000000N000010000
000000076301227954241408032016075600010830000000180000D00000000N00000000N00000000N000010000
000000077301227954241409032016073400010830000000550000D00000000N00000000N00000000N000010000
000000078301227954241410032016075800010830000000200000D00000000N00000000N00000000N000010000
000000079301227954241411032016075800010830000000000000D00000000N00000000N00000000N000010000
000000080301227954241412032016    00000000000000000000D00000000N00000000N00000000N000010000
000000081301227954241413032016    00000000000000000000D00000000N00000000N00000000N000010000
000000082301227954241414032016073100010830000000510000D00000000N00000000N00000000N000010000
000000083301227954241415032016075500010830000000130000D00000000N00000000N00000000N000010000
000000084301227954241416032016075700010830000000310000D00000000N00000000N00000000N000010000
000000085301227954241417032016075600010830000000000000D00000000N00000000N00000000N000010000
000000086301227954241418032016075600010830000000000000D00000000N00000000N00000000N000010000
000000087301227954241419032016    00000000000000000000D00000000N00000000N00000000N000010000
000000088301227954241420032016    00000000000000000000D00000000N00000000N00000000N000010000
000000089301227954241421032016073000010830000000440000D00000000N00000000N00000000N000010000
000000090301227954241422032016075500010830000000090000D00000000N00000000N00000000N000010000
000000091301227954241423032016075600010742000000010000D00000000N00000000N00000000N004810000
000000092301227954241424032016075500010810000000130000D00000000N00000000N00000000N002010000
000000093301227954241425032016    00000000000000000000D00000000N00000000N00000000N000010000
000000094301227954241426032016    00000000000000000000D00000000N00000000N00000000N000010000
000000095301227954241427032016    00000000000000000000D00000000N00000000N00000000N000010000
000000096301227954241428032016072900010602000000450000D00000000N00000000N00000000N022810000
000000097301227954241429032016075500010830000000250000D00000000N00000000N00000000N000010000
000000098301227954241430032016075500010830000000090000D00000000N00000000N00000000N000010000
000000099301227954241431032016075800010830000000180000D00000000N00000000N00000000N000010000
000000100301227954241401042016075800010830000000180000D00000000N00000000N00000000N000010000
000000101301227954241402042016    00000000000000000000D00000000N00000000N00000000N000010000
000000102301227954241403042016    00000000000000000000D00000000N00000000N00000000N000010000
000000103301227954241404042016073000010830000000410000D00000000N00000000N00000000N000010000
000000104301227954241405042016075700010830000000190000D00000000N00000000N00000000N000010000
000000105301227954241406042016075500010830000000370000D00000000N00000000N00000000N000010000
000000106301227954241407042016075600010830000000150000D00000000N00000000N00000000N000010000
000000107301227954241408042016075500010830000000000000D00000000N00000000N00000000N000010000
000000108301227954241409042016    00000000000000000000D00000000N00000000N00000000N000010000
000000109301227954241410042016    00000000000000000000D00000000N00000000N00000000N000010000
000000110301227954241411042016073300010830000000310000D00000000N00000000N00000000N000010000
000000111301227954241412042016075500010830000000000000D00000000N00000000N00000000N000010000
000000112301227954241413042016072400010000000000000000D00000000N00000000N00000000N083010000
000000117302067947948601012016    00020000000000000600D00001000D00000000N00000000N000010000
000000118302067947948602012016    00000000000000000600D00001000D00000000N00000000N000010000
000000119302067947948603012016    00000000000000000600D00001000D00000000N00000000N000010000
000000120302067947948604012016075500020830000000130600D00001000D00000000N00000000N000010000
000000121302067947948605012016075500020830000000070600D00001000D00000000N00000000N000010000
000000122302067947948606012016075600020830000000000600D00001000D00000000N00000000N000010000
000000123302067947948607012016080000020830000000000600D00001000D00000000N00000000N000010000
000000124302067947948608012016075400020830000000010600D00001000D00000000N00000000N000010000
000000125302067947948609012016    00000000000000000600D00001000D00000000N00000000N000010000
000000126302067947948610012016    00000000000000000600D00001000D00000000N00000000N000010000
000000127302067947948611012016075500020830000000000600D00001000D00000000N00000000N000010000
000000128302067947948612012016075700020830000000140600D00001000D00000000N00000000N000010000
000000129302067947948613012016075500020830000000000600D00001000D00000000N00000000N000010000
000000130302067947948614012016075600020830000000010600D00001000D00000000N00000000N000010000
000000131302067947948615012016075500020830000000000600D00001000D00000000N00000000N000010000
000000132302067947948616012016    00000000000000000600D00001000D00000000N00000000N000010000
000000133302067947948617012016    00000000000000000600D00001000D00000000N00000000N000010000
000000134302067947948618012016075500020830000000000600D00001000D00000000N00000000N000010000
000000135302067947948619012016075500020830000000000600D00001000D00000000N00000000N000010000
000000136302067947948620012016075900020830000000000600D00001000D00000000N00000000N000010000
000000137302067947948621012016075500020830000000070600D00001000D00000000N00000000N000010000
000000138302067947948622012016075500020830000000000600D00001000D00000000N00000000N000010000
000000139302067947948623012016    00000000000000000600D00001000D00000000N00000000N000010000
000000140302067947948624012016    00000000000000000600D00001000D00000000N00000000N000010000
000000141302067947948625012016075500020830000000110600D00001000D00000000N00000000N000010000
000000142302067947948626012016075500020830000000000600D00001000D00000000N00000000N000010000
000000143302067947948627012016    00021257000000000600D00001000D00000000N00000000N000010000
000000144302067947948628012016080100020830000000000600D00001000D00000000N00000000N000010000
000000145302067947948629012016075500020830000000000600D00001000D00000000N00000000N000010000
000000146302067947948630012016    00000000000000000600D00001000D00000000N00000000N000010000
000000147302067947948631012016    00000000000000000600D00001000D00000000N00000000N000010000
000000148302067947948601022016080200020830000000010600D00001000D00000000N00000000N000010000
000000149302067947948602022016075500020830000000000600D00001000D00000000N00000000N000010000
000000150302067947948603022016075500020830000000000600D00001000D00000000N00000000N000010000
000000151302067947948604022016075500020830000000130600D00001000D00000000N00000000N000010000
000000152302067947948605022016075500020830000000000600D00001000D00000000N00000000N000010000
000000153302067947948606022016    00000000000000000600D00001000D00000000N00000000N000010000
000000154302067947948607022016    00000000000000000600D00001000D00000000N00000000N000010000
000000155302067947948608022016    00020000000000000600D00001000D00000000N00000000N000010000
000000156302067947948609022016    00020000000000000600D00001000D00000000N00000000N000010000
000000157302067947948610022016075500020830000000140600D00001000D00000000N00000000N000010000
000000158302067947948611022016075500020830000000000600D00001000D00000000N00000000N000010000
000000159302067947948612022016075500020830000000000600D00001000D00000000N00000000N000010000
000000160302067947948613022016    00000000000000000600D00001000D00000000N00000000N000010000
000000161302067947948614022016    00000000000000000600D00001000D00000000N00000000N000010000
000000162302067947948615022016075500020830000000000600D00001000D00000000N00000000N000010000
000000163302067947948616022016075500020830000000000600D00001000D00000000N00000000N000010000
000000164302067947948617022016075500020830000000000600D00001000D00000000N00000000N000010000
000000165302067947948618022016075600020830000000210600D00001000D00000000N00000000N000010000
000000166302067947948619022016075500020830000000000600D00001000D00000000N00000000N000010000
000000167302067947948620022016    00000000000000000600D00001000D00000000N00000000N000010000
000000168302067947948621022016    00000000000000000600D00001000D00000000N00000000N000010000
000000169302067947948622022016075700020830000000000600D00001000D00000000N00000000N000010000
000000170302067947948623022016075500020830000000000600D00001000D00000000N00000000N000010000
000000171302067947948624022016075500020830000000000600D00001000D00000000N00000000N000010000
000000172302067947948625022016075600020830000000000600D00001000D00000000N00000000N000010000
000000173302067947948626022016075600020830000000000600D00001000D00000000N00000000N000010000
000000174302067947948627022016    00000000000000000600D00001000D00000000N00000000N000010000
000000175302067947948628022016    00000000000000000600D00001000D00000000N00000000N000010000
000000176302067947948629022016075500020830000000000600D00001000D00000000N00000000N000010000
000000177302067947948601032016075500020830000000000600D00001000D00000000N00000000N000010000
000000178302067947948602032016075800020931000000000600D00001000D00000000N00000000N000010000
000000179302067947948603032016075500020830000000000600D00001000D00000000N00000000N000010000
000000180302067947948604032016075500020830000000130600D00001000D00000000N00000000N000010000
000000181302067947948605032016    00000000000000000600D00001000D00000000N00000000N000010000
000000182302067947948606032016    00000000000000000600D00001000D00000000N00000000N000010000
000000183302067947948607032016073700020830000000360600D00001000D00000000N00000000N000010000
000000184302067947948608032016    00020830000000020600D00001000D00000000N00000000N000010000
000000185302067947948609032016080600020829000000010600D00001000D00000000N00000000N000110000
000000186302067947948610032016075500020830000000590600D00001000D00000000N00000000N000010000
000000187302067947948611032016075800020830000000000600D00001000D00000000N00000000N000010000
000000188302067947948612032016    00000000000000000600D00001000D00000000N00000000N000010000
000000189302067947948613032016    00000000000000000600D00001000D00000000N00000000N000010000
000000190302067947948614032016075500020830000000000600D00001000D00000000N00000000N000010000
000000191302067947948615032016075500020402000000000600D00001000D00000000N00000000N000010000
000000192302067947948616032016075500020830000000110600D00001000D00000000N00000000N000010000
000000193302067947948617032016075600020830000000150600D00001000D00000000N00000000N000010000
000000194302067947948618032016075500020830000000000600D00001000D00000000N00000000N000010000
000000195302067947948619032016    00000000000000000600D00001000D00000000N00000000N000010000
000000196302067947948620032016    00000000000000000600D00001000D00000000N00000000N000010000
000000197302067947948621032016075500020830000000000600D00001000D00000000N00000000N000010000
000000198302067947948622032016075600020830000000000600D00001000D00000000N00000000N000010000
000000199302067947948623032016075500020824000000180600D00001000D00000000N00000000N000610000
000000200302067947948624032016075600020806000000000600D00001000D00000000N00000000N002410000
000000201302067947948625032016    00000000000000000600D00001000D00000000N00000000N000010000
000000202302067947948626032016    00000000000000000600D00001000D00000000N00000000N000010000
000000203302067947948627032016    00000000000000000600D00001000D00000000N00000000N000010000
000000204302067947948628032016075500020830000000000600D00001000D00000000N00000000N000010000
000000205302067947948629032016075600020830000000380600D00001000D00000000N00000000N000010000
000000206302067947948630032016075700020830000000000600D00001000D00000000N00000000N000010000
000000207302067947948631032016075900020830000000120600D00001000D00000000N00000000N000010000
000000208302067947948601042016080200020830000000010600D00001000D00000000N00000000N000010000
000000209302067947948602042016    00000000000000000600D00001000D00000000N00000000N000010000
000000210302067947948603042016    00000000000000000600D00001000D00000000N00000000N000010000
000000211302067947948604042016075800020830000000290600D00001000D00000000N00000000N000010000
000000212302067947948605042016075900020830000000130600D00001000D00000000N00000000N000010000
000000213302067947948606042016080000020830000000170600D00001000D00000000N00000000N000010000
000000214302067947948607042016075800020830000000110600D00001000D00000000N00000000N000010000
000000215302067947948608042016080200020830000000000600D00001000D00000000N00000000N000010000
000000216302067947948609042016    00000000000000000600D00001000D00000000N00000000N000010000
000000217302067947948610042016    00000000000000000600D00001000D00000000N00000000N000010000
000000218302067947948611042016    00020323000000200600D00001000D00000000N00000000N050710000
000000219302067947948612042016173600020000000000000600D00001000D00000000N00000000N083010000
000000220302067947948613042016073000020000000000000600D00001000D00000000N00000000N083010000
000000225302078724722101012016    00020000000000000600D00001000D00000000N00000000N000010000
000000226302078724722102012016    00000000000000000600D00001000D00000000N00000000N000010000
000000227302078724722103012016    00000000000000000600D00001000D00000000N00000000N000010000
000000228302078724722104012016080000020830000000030600D00001000D00000000N00000000N000010000
000000229302078724722105012016073900020830000000400600D00001000D00000000N00000000N000010000
000000230302078724722106012016073500020830000000410600D00001000D00000000N00000000N000010000
000000231302078724722107012016074500020830000000340600D00001000D00000000N00000000N000010000
000000232302078724722108012016075100020830000000190600D00001000D00000000N00000000N000010000
000000233302078724722109012016    00000000000000000600D00001000D00000000N00000000N000010000
000000234302078724722110012016    00000000000000000600D00001000D00000000N00000000N000010000
000000235302078724722111012016074000020830000000480600D00001000D00000000N00000000N000010000
000000236302078724722112012016074000020830000000530600D00001000D00000000N00000000N000010000
000000237302078724722113012016081000020817000000000600D00001000D00000000N00000000N001310000
000000238302078724722114012016073800020402000000220600D00001000D00000000N00000000N000010000
000000239302078724722115012016075600020830000000110600D00001000D00000000N00000000N000010000
000000240302078724722116012016    00000000000000000600D00001000D00000000N00000000N000010000
000000241302078724722117012016    00000000000000000600D00001000D00000000N00000000N000010000
000000242302078724722118012016074700020830000000280600D00001000D00000000N00000000N000010000
000000243302078724722119012016073600020830000000300600D00001000D00000000N00000000N000010000
000000244302078724722120012016074000020403000000200600D00001000D00000000N00000000N000010000
000000245302078724722121012016073400020830000000340600D00001000D00000000N00000000N000010000
000000246302078724722122012016075200020830000000120600D00001000D00000000N00000000N000010000
000000247302078724722123012016    00000000000000000600D00001000D00000000N00000000N000010000
000000248302078724722124012016    00000000000000000600D00001000D00000000N00000000N000010000
000000249302078724722125012016075600020830000000010600D00001000D00000000N00000000N000010000
000000250302078724722126012016075300020830000000200600D00001000D00000000N00000000N000010000
000000251302078724722127012016074900020830000000170600D00001000D00000000N00000000N000010000
000000252302078724722128012016074900020830000000360600D00001000D00000000N00000000N000010000
000000253302078724722129012016074900020830000000170600D00001000D00000000N00000000N000010000
000000254302078724722130012016    00000000000000000600D00001000D00000000N00000000N000010000
000000255302078724722131012016    00000000000000000600D00001000D00000000N00000000N000010000
000000256302078724722101022016074100020830000000280600D00001000D00000000N00000000N000010000
000000257302078724722102022016075600020830000000000600D00001000D00000000N00000000N000010000
000000258302078724722103022016075600020830000000200600D00001000D00000000N00000000N000010000
000000259302078724722104022016075700020830000000110600D00001000D00000000N00000000N000010000
000000260302078724722105022016075800020830000000000600D00001000D00000000N00000000N000010000
000000261302078724722106022016    00000000000000000600D00001000D00000000N00000000N000010000
000000262302078724722107022016    00000000000000000600D00001000D00000000N00000000N000010000
000000263302078724722108022016    00020000000000000600D00001000D00000000N00000000N000010000
000000264302078724722109022016    00020000000000000600D00001000D00000000N00000000N000010000
000000265302078724722110022016075600020830000000190600D00001000D00000000N00000000N000010000
000000266302078724722111022016075800020830000000220600D00001000D00000000N00000000N000010000
000000267302078724722112022016080000020830000000230600D00001000D00000000N00000000N000010000
000000268302078724722113022016    00000000000000000600D00001000D00000000N00000000N000010000
000000269302078724722114022016    00000000000000000600D00001000D00000000N00000000N000010000
000000270302078724722115022016080400020830000000080600D00001000D00000000N00000000N000010000
000000271302078724722116022016075600020830000000200600D00001000D00000000N00000000N000010000
000000272302078724722117022016075600020830000000000600D00001000D00000000N00000000N000010000
000000273302078724722118022016075700020830000000220600D00001000D00000000N00000000N000010000
000000274302078724722119022016080400020830000000140600D00001000D00000000N00000000N000010000
000000275302078724722120022016    00000000000000000600D00001000D00000000N00000000N000010000
000000276302078724722121022016    00000000000000000600D00001000D00000000N00000000N000010000
000000277302078724722122022016075900020830000000200600D00001000D00000000N00000000N000010000
000000278302078724722123022016075600020830000000150600D00001000D00000000N00000000N000010000
000000279302078724722124022016075800020830000000250600D00001000D00000000N00000000N000010000
000000280302078724722125022016075600020830000000210600D00001000D00000000N00000000N000010000
000000281302078724722126022016075800020830000000120600D00001000D00000000N00000000N000010000
000000282302078724722127022016    00000000000000000600D00001000D00000000N00000000N000010000
000000283302078724722128022016    00000000000000000600D00001000D00000000N00000000N000010000
000000284302078724722129022016075600020830000000140600D00001000D00000000N00000000N000010000
000000285302078724722101032016075600020830000000170600D00001000D00000000N00000000N000010000
000000286302078724722102032016075600020830000000240600D00001000D00000000N00000000N000010000
000000287302078724722103032016075800020830000000150600D00001000D00000000N00000000N000010000
000000288302078724722104032016075700020830000000120600D00001000D00000000N00000000N000010000
000000289302078724722105032016    00000000000000000600D00001000D00000000N00000000N000010000
000000290302078724722106032016    00000000000000000600D00001000D00000000N00000000N000010000
000000291302078724722107032016    00020000000000000600D00001000D00000000N00000000N000010000
000000292302078724722108032016    00020000000000000600D00001000D00000000N00000000N000010000
000000293302078724722109032016    00020000000000000600D00001000D00000000N00000000N000010000
000000294302078724722110032016    00020000000000000600D00001000D00000000N00000000N000010000
000000295302078724722111032016    00020000000000000600D00001000D00000000N00000000N000010000
000000296302078724722112032016    00000000000000000600D00001000D00000000N00000000N000010000
000000297302078724722113032016    00000000000000000600D00001000D00000000N00000000N000010000
000000298302078724722114032016    00020000000000000600D00001000D00000000N00000000N000010000
000000299302078724722115032016    00020000000000000600D00001000D00000000N00000000N000010000
000000300302078724722116032016    00020000000000000600D00001000D00000000N00000000N000010000
000000301302078724722117032016    00020000000000000600D00001000D00000000N00000000N000010000
000000302302078724722118032016    00020000000000000600D00001000D00000000N00000000N000010000
000000303302078724722119032016    00000000000000000600D00001000D00000000N00000000N000010000
000000304302078724722120032016    00000000000000000600D00001000D00000000N00000000N000010000
000000305302078724722121032016    00020000000000000600D00001000D00000000N00000000N000010000
000000306302078724722122032016    00020000000000000600D00001000D00000000N00000000N000010000
000000307302078724722123032016    00020000000000000600D00001000D00000000N00000000N000010000
000000308302078724722124032016    00020000000000000600D00001000D00000000N00000000N000010000
000000309302078724722125032016    00000000000000000600D00001000D00000000N00000000N000010000
000000310302078724722126032016    00000000000000000600D00001000D00000000N00000000N000010000
000000311302078724722127032016    00000000000000000600D00001000D00000000N00000000N000010000
000000312302078724722128032016    00020000000000000600D00001000D00000000N00000000N000010000
000000313302078724722129032016    00020000000000000600D00001000D00000000N00000000N000010000
000000314302078724722130032016    00020000000000000600D00001000D00000000N00000000N000010000
000000315302078724722131032016    00020000000000000600D00001000D00000000N00000000N000010000
000000316302078724722101042016    00020000000000000600D00001000D00000000N00000000N000010000
000000317302078724722102042016    00000000000000000600D00001000D00000000N00000000N000010000
000000318302078724722103042016    00000000000000000600D00001000D00000000N00000000N000010000
000000319302078724722104042016    00020000000000000600D00001000D00000000N00000000N000010000
000000320302078724722105042016    00020000000000000600D00001000D00000000N00000000N000010000
000000321302078724722106042016075900020830000000280600D00001000D00000000N00000000N000010000
000000322302078724722107042016075900020830000000240600D00001000D00000000N00000000N000010000
000000323302078724722108042016075900020830000000260600D00001000D00000000N00000000N000010000
000000324302078724722109042016    00000000000000000600D00001000D00000000N00000000N000010000
000000325302078724722110042016    00000000000000000600D00001000D00000000N00000000N000010000
000000326302078724722111042016080100020830000000390600D00001000D00000000N00000000N000010000
000000327302078724722112042016075900020830000000300600D00001000D00000000N00000000N000010000
000000328302078724722113042016075900020000000000000600D00001000D00000000N00000000N083010000
000000333301325232785501012016    00020000000000000600D00001000D00000000N00000000N000010000
000000334301325232785502012016    00000000000000000600D00001000D00000000N00000000N000010000
000000335301325232785503012016    00000000000000000600D00001000D00000000N00000000N000010000
000000336301325232785504012016071900020830000001060600D00001000D00000000N00000000N000010000
000000337301325232785505012016074100020830000000270600D00001000D00000000N00000000N000010000
000000338301325232785506012016075000020830000000050600D00001000D00000000N00000000N000010000
000000339301325232785507012016075400020830000000010600D00001000D00000000N00000000N000010000
000000340301325232785508012016075600020830000000000600D00001000D00000000N00000000N000010000
000000341301325232785509012016    00000000000000000600D00001000D00000000N00000000N000010000
000000342301325232785510012016    00000000000000000600D00001000D00000000N00000000N000010000
000000343301325232785511012016072700020830000000480600D00001000D00000000N00000000N000010000
000000344301325232785512012016075700020830000000130600D00001000D00000000N00000000N000010000
000000345301325232785513012016075700020830000000000600D00001000D00000000N00000000N000010000
000000346301325232785514012016075800020830000000010600D00001000D00000000N00000000N000010000
000000347301325232785515012016075800020830000000070600D00001000D00000000N00000000N000010000
000000348301325232785516012016    00000000000000000600D00001000D00000000N00000000N000010000
000000349301325232785517012016    00000000000000000600D00001000D00000000N00000000N000010000
000000350301325232785518012016072200020830000000500600D00001000D00000000N00000000N000010000
000000351301325232785519012016075700020830000000000600D00001000D00000000N00000000N000010000
000000352301325232785520012016075800020830000000100600D00001000D00000000N00000000N000010000
000000353301325232785521012016075800020830000000020600D00001000D00000000N00000000N000010000
000000354301325232785522012016080000020830000000070600D00001000D00000000N00000000N000010000
000000355301325232785523012016    00000000000000000600D00001000D00000000N00000000N000010000
000000356301325232785524012016    00000000000000000600D00001000D00000000N00000000N000010000
000000357301325232785525012016072600020830000000470600D00001000D00000000N00000000N000010000
000000358301325232785526012016080000020830000000150600D00001000D00000000N00000000N000010000
000000359301325232785527012016075700020830000000210600D00001000D00000000N00000000N000010000
000000360301325232785528012016075900020830000000220600D00001000D00000000N00000000N000010000
000000361301325232785529012016075700020830000000070600D00001000D00000000N00000000N000010000
000000362301325232785530012016    00000000000000000600D00001000D00000000N00000000N000010000
000000363301325232785531012016    00000000000000000600D00001000D00000000N00000000N000010000
000000364301325232785501022016072700020830000000510600D00001000D00000000N00000000N000010000
000000365301325232785502022016075200020830000000110600D00001000D00000000N00000000N000010000
000000366301325232785503022016075700020830000000000600D00001000D00000000N00000000N000010000
000000367301325232785504022016075700020830000000120600D00001000D00000000N00000000N000010000
000000368301325232785505022016075800020830000000000600D00001000D00000000N00000000N000010000
000000369301325232785506022016    00000000000000000600D00001000D00000000N00000000N000010000
000000370301325232785507022016    00000000000000000600D00001000D00000000N00000000N000010000
000000371301325232785508022016    00020000000000000600D00001000D00000000N00000000N000010000
000000372301325232785509022016    00020000000000000600D00001000D00000000N00000000N000010000
000000373301325232785510022016075100020830000000160600D00001000D00000000N00000000N000010000
000000374301325232785511022016075900020830000000140600D00001000D00000000N00000000N000010000
000000375301325232785512022016080100020830000000160600D00001000D00000000N00000000N000010000
000000376301325232785513022016    00000000000000000600D00001000D00000000N00000000N000010000
000000377301325232785514022016    00000000000000000600D00001000D00000000N00000000N000010000
000000378301325232785515022016075600020735000000000600D00001000D00000000N00000000N005510000
000000379301325232785516022016075500020830000000220600D00001000D00000000N00000000N000010000
000000380301325232785517022016075900020830000000000600D00001000D00000000N00000000N000010000
000000381301325232785518022016075700020830000000000600D00001000D00000000N00000000N000010000
000000382301325232785519022016080100020830000000010600D00001000D00000000N00000000N000010000
000000383301325232785520022016    00000000000000000600D00001000D00000000N00000000N000010000
000000384301325232785521022016    00000000000000000600D00001000D00000000N00000000N000010000
000000385301325232785522022016073600020830000000320600D00001000D00000000N00000000N000010000
000000386301325232785523022016075700020830000000000600D00001000D00000000N00000000N000010000
000000387301325232785524022016075600020830000000000600D00001000D00000000N00000000N000010000
000000388301325232785525022016075600020830000000000600D00001000D00000000N00000000N000010000
000000389301325232785526022016075800020824000000000600D00001000D00000000N00000000N000610000
000000390301325232785527022016    00000000000000000600D00001000D00000000N00000000N000010000
000000391301325232785528022016    00000000000000000600D00001000D00000000N00000000N000010000
000000392301325232785529022016073000020830000001180600D00001000D00000000N00000000N000010000
000000393301325232785501032016075400020830000000270600D00001000D00000000N00000000N000010000
000000394301325232785502032016075700020830000000010600D00001000D00000000N00000000N000010000
000000395301325232785503032016075700020830000000020600D00001000D00000000N00000000N000010000
000000396301325232785504032016075800020830000000240600D00001000D00000000N00000000N000010000
000000397301325232785505032016    00000000000000000600D00001000D00000000N00000000N000010000
000000398301325232785506032016    00000000000000000600D00001000D00000000N00000000N000010000
000000399301325232785507032016075500020830000000000600D00001000D00000000N00000000N000010000
000000400301325232785508032016075700020830000000440600D00001000D00000000N00000000N000010000
000000401301325232785509032016080700020828000000420600D00001000D00000000N00000000N000210000
000000402301325232785510032016080100020830000000160600D00001000D00000000N00000000N000010000
000000403301325232785511032016075900020830000000000600D00001000D00000000N00000000N000010000
000000404301325232785512032016    00000000000000000600D00001000D00000000N00000000N000010000
000000405301325232785513032016    00000000000000000600D00001000D00000000N00000000N000010000
000000406301325232785514032016073100020830000000460600D00001000D00000000N00000000N000010000
000000407301325232785515032016075600020830000000110600D00001000D00000000N00000000N000010000
000000408301325232785516032016075800020830000000140600D00001000D00000000N00000000N000010000
000000409301325232785517032016075700020830000000010600D00001000D00000000N00000000N000010000
000000410301325232785518032016075900020830000000000600D00001000D00000000N00000000N000010000
000000411301325232785519032016    00000000000000000600D00001000D00000000N00000000N000010000
000000412301325232785520032016    00000000000000000600D00001000D00000000N00000000N000010000
000000413301325232785521032016075400020830000000210600D00001000D00000000N00000000N000010000
000000414301325232785522032016080000020830000000000600D00001000D00000000N00000000N000010000
000000415301325232785523032016080200020830000000160600D00001000D00000000N00000000N000010000
000000416301325232785524032016075800020809000000000600D00001000D00000000N00000000N002110000
000000417301325232785525032016    00000000000000000600D00001000D00000000N00000000N000010000
000000418301325232785526032016    00000000000000000600D00001000D00000000N00000000N000010000
000000419301325232785527032016    00000000000000000600D00001000D00000000N00000000N000010000
000000420301325232785528032016072900020830000000490600D00001000D00000000N00000000N000010000
000000421301325232785529032016075600020830000000000600D00001000D00000000N00000000N000010000
000000422301325232785530032016075700020830000000000600D00001000D00000000N00000000N000010000
000000423301325232785531032016075800020830000000140600D00001000D00000000N00000000N000010000
000000424301325232785501042016075800020830000000000600D00001000D00000000N00000000N000010000
000000425301325232785502042016    00000000000000000600D00001000D00000000N00000000N000010000
000000426301325232785503042016    00000000000000000600D00001000D00000000N00000000N000010000
000000427301325232785504042016075600020830000000000600D00001000D00000000N00000000N000010000
000000428301325232785505042016080200020616000000070600D00001000D00000000N00000000N021410000
000000429301325232785506042016075500020830000000170600D00001000D00000000N00000000N000010000
000000430301325232785507042016075700020830000000000600D00001000D00000000N00000000N000010000
000000431301325232785508042016075600020730000000270600D00001000D00000000N00000000N010010000
000000432301325232785509042016    00000000000000000600D00001000D00000000N00000000N000010000
000000433301325232785510042016    00000000000000000600D00001000D00000000N00000000N000010000
000000434301325232785511042016073100020830000000320600D00001000D00000000N00000000N000010000
000000435301325232785512042016075700020830000000010600D00001000D00000000N00000000N000010000
000000436301325232785513042016072700020000000000000600D00001000D00000000N00000000N083010000
000000441301358680577101012016    00020000000000000600D00001000D00000000N00000000N000010000
000000442301358680577102012016    00000000000000000600D00001000D00000000N00000000N000010000
000000443301358680577103012016    00000000000000000600D00001000D00000000N00000000N000010000
000000444301358680577104012016    00020000000000000600D00001000D00000000N00000000N000010000
000000445301358680577105012016    00020000000000000600D00001000D00000000N00000000N000010000
000000446301358680577106012016    00020000000000000600D00001000D00000000N00000000N000010000
000000447301358680577107012016    00020000000000000600D00001000D00000000N00000000N000010000
000000448301358680577108012016    00020000000000000600D00001000D00000000N00000000N000010000
000000449301358680577109012016    00000000000000000600D00001000D00000000N00000000N000010000
000000450301358680577110012016    00000000000000000600D00001000D00000000N00000000N000010000
000000451301358680577111012016    00020000000000000600D00001000D00000000N00000000N000010000
000000452301358680577112012016    00020000000000000600D00001000D00000000N00000000N000010000
000000453301358680577113012016    00020000000000000600D00001000D00000000N00000000N000010000
000000454301358680577114012016    00020000000000000600D00001000D00000000N00000000N000010000
000000455301358680577115012016    00020000000000000600D00001000D00000000N00000000N000010000
000000456301358680577116012016    00000000000000000600D00001000D00000000N00000000N000010000
000000457301358680577117012016    00000000000000000600D00001000D00000000N00000000N000010000
000000458301358680577118012016    00020000000000000600D00001000D00000000N00000000N000010000
000000459301358680577119012016    00020000000000000600D00001000D00000000N00000000N000010000
000000460301358680577120012016    00020000000000000600D00001000D00000000N00000000N000010000
000000461301358680577121012016    00020000000000000600D00001000D00000000N00000000N000010000
000000462301358680577122012016    00020000000000000600D00001000D00000000N00000000N000010000
000000463301358680577123012016    00000000000000000600D00001000D00000000N00000000N000010000
000000464301358680577124012016    00000000000000000600D00001000D00000000N00000000N000010000
000000465301358680577125012016080400020830000000000600D00001000D00000000N00000000N000010000
000000466301358680577126012016080400020830000000120600D00001000D00000000N00000000N000010000
000000467301358680577127012016080100020830000000000600D00001000D00000000N00000000N000010000
000000468301358680577128012016075500020830000000070600D00001000D00000000N00000000N000010000
000000469301358680577129012016075900020830000000000600D00001000D00000000N00000000N000010000
000000470301358680577130012016    00000000000000000600D00001000D00000000N00000000N000010000
000000471301358680577131012016    00000000000000000600D00001000D00000000N00000000N000010000
000000472301358680577101022016075600020830000000000600D00001000D00000000N00000000N000010000
000000473301358680577102022016080100020830000000000600D00001000D00000000N00000000N000010000
000000474301358680577103022016080400020830000000110600D00001000D00000000N00000000N000010000
000000475301358680577104022016080000020830000000000600D00001000D00000000N00000000N000010000
000000476301358680577105022016075800020830000000180600D00001000D00000000N00000000N000010000
000000477301358680577106022016    00000000000000000600D00001000D00000000N00000000N000010000
000000478301358680577107022016    00000000000000000600D00001000D00000000N00000000N000010000
000000479301358680577108022016    00020000000000000600D00001000D00000000N00000000N000010000
000000480301358680577109022016    00020000000000000600D00001000D00000000N00000000N000010000
000000481301358680577110022016075600020830000000100600D00001000D00000000N00000000N000010000
000000482301358680577111022016080000020830000000070600D00001000D00000000N00000000N000010000
000000483301358680577112022016080100020830000000000600D00001000D00000000N00000000N000010000
000000484301358680577113022016    00000000000000000600D00001000D00000000N00000000N000010000
000000485301358680577114022016    00000000000000000600D00001000D00000000N00000000N000010000
000000486301358680577115022016075500020830000000170600D00001000D00000000N00000000N000010000
000000487301358680577116022016075600020830000000000600D00001000D00000000N00000000N000010000
000000488301358680577117022016080100020830000000190600D00001000D00000000N00000000N000010000
000000489301358680577118022016080000020830000000000600D00001000D00000000N00000000N000010000
000000490301358680577119022016075800020830000000190600D00001000D00000000N00000000N000010000
000000491301358680577120022016    00000000000000000600D00001000D00000000N00000000N000010000
000000492301358680577121022016    00000000000000000600D00001000D00000000N00000000N000010000
000000493301358680577122022016075800020830000000000600D00001000D00000000N00000000N000010000
000000494301358680577123022016075800020830000000130600D00001000D00000000N00000000N000010000
000000495301358680577124022016075600020830000000100600D00001000D00000000N00000000N000010000
000000496301358680577125022016075900020830000000070600D00001000D00000000N00000000N000010000
000000497301358680577126022016080200020830000000000600D00001000D00000000N00000000N000010000
000000498301358680577127022016    00000000000000000600D00001000D00000000N00000000N000010000
000000499301358680577128022016    00000000000000000600D00001000D00000000N00000000N000010000
000000500301358680577129022016075500020830000000160600D00001000D00000000N00000000N000010000
000000501301358680577101032016130000020000070000000600D00001000D00000000N00000000N000010000
000000502301358680577102032016075800020830000000000600D00001000D00000000N00000000N000010000
000000503301358680577103032016075900020830000000170600D00001000D00000000N00000000N000010000
000000504301358680577104032016075900020830000000000600D00001000D00000000N00000000N000010000
000000505301358680577105032016    00000000000000000600D00001000D00000000N00000000N000010000
000000506301358680577106032016    00000000000000000600D00001000D00000000N00000000N000010000
000000507301358680577107032016075800020830000000000600D00001000D00000000N00000000N000010000
000000508301358680577108032016075700020830000000570600D00001000D00000000N00000000N000010000
000000509301358680577109032016075900020830000000290600D00001000D00000000N00000000N000010000
000000510301358680577110032016080100020830000000000600D00001000D00000000N00000000N000010000
000000511301358680577111032016075900020837000000000600D00001000D00000000N00000000N000010000
000000512301358680577112032016    00000000000000000600D00001000D00000000N00000000N000010000
000000513301358680577113032016    00000000000000000600D00001000D00000000N00000000N000010000
000000514301358680577114032016075900020830000000080600D00001000D00000000N00000000N000010000
000000515301358680577115032016080000020830000000020600D00001000D00000000N00000000N000010000
000000516301358680577116032016075800020830000000090600D00001000D00000000N00000000N000010000
000000517301358680577117032016075700020830000000000600D00001000D00000000N00000000N000010000
000000518301358680577118032016074700020830000000310600D00001000D00000000N00000000N000010000
000000519301358680577119032016    00000000000000000600D00001000D00000000N00000000N000010000
000000520301358680577120032016    00000000000000000600D00001000D00000000N00000000N000010000
000000521301358680577121032016080100020830000000090600D00001000D00000000N00000000N000010000
000000522301358680577122032016075300020830000000130600D00001000D00000000N00000000N000010000
000000523301358680577123032016083500020755000000110600D00001000D00000000N00000000N003510000
000000524301358680577124032016080000020808000000000600D00001000D00000000N00000000N002210000
000000525301358680577125032016    00000000000000000600D00001000D00000000N00000000N000010000
000000526301358680577126032016    00000000000000000600D00001000D00000000N00000000N000010000
000000527301358680577127032016    00000000000000000600D00001000D00000000N00000000N000010000
000000528301358680577128032016080200020830000000000600D00001000D00000000N00000000N000010000
000000529301358680577129032016081400020816000000000600D00001000D00000000N00000000N001410000
000000530301358680577130032016080200020830000000320600D00001000D00000000N00000000N000010000
000000531301358680577131032016075800020830000000000600D00001000D00000000N00000000N000010000
000000532301358680577101042016080000020830000000000600D00001000D00000000N00000000N000010000
000000533301358680577102042016    00000000000000000600D00001000D00000000N00000000N000010000
000000534301358680577103042016    00000000000000000600D00001000D00000000N00000000N000010000
000000535301358680577104042016080000020830000000130600D00001000D00000000N00000000N000010000
000000536301358680577105042016075900020830000000000600D00001000D00000000N00000000N000010000
000000537301358680577106042016075600020830000000120600D00001000D00000000N00000000N000010000
000000538301358680577107042016081300020817000000000600D00001000D00000000N00000000N001310000
000000539301358680577108042016080700020828000000000600D00001000D00000000N00000000N000210000
000000540301358680577109042016    00000000000000000600D00001000D00000000N00000000N000010000
000000541301358680577110042016    00000000000000000600D00001000D00000000N00000000N000010000
000000542301358680577111042016080400020830000000100600D00001000D00000000N00000000N000010000
000000543301358680577112042016080300020830000000060600D00001000D00000000N00000000N000010000
000000544301358680577113042016075900020000000000000600D00001000D00000000N00000000N083010000
000000549302021783698901012016    00020000000000000600D00001000D00000000N00000000N000010000
000000550302021783698902012016    00000000000000000600D00001000D00000000N00000000N000010000
000000551302021783698903012016    00000000000000000600D00001000D00000000N00000000N000010000
000000552302021783698904012016    00020000000000000600D00001000D00000000N00000000N000010000
000000553302021783698905012016    00020000000000000600D00001000D00000000N00000000N000010000
000000554302021783698906012016075400020830000000010600D00001000D00000000N00000000N000010000
000000555302021783698907012016075400020830000000010600D00001000D00000000N00000000N000010000
000000556302021783698908012016075000020830000000130600D00001000D00000000N00000000N000010000
000000557302021783698909012016    00000000000000000600D00001000D00000000N00000000N000010000
000000558302021783698910012016    00000000000000000600D00001000D00000000N00000000N000010000
000000559302021783698911012016073700020830000000300600D00001000D00000000N00000000N000010000
000000560302021783698912012016075400020830000000160600D00001000D00000000N00000000N000010000
000000561302021783698913012016075900020411000000000600D00001000D00000000N00000000N041910000
000000562302021783698914012016075400020830000000110600D00001000D00000000N00000000N000010000
000000563302021783698915012016085700020830000000080600D00001000D00000000N00000000N000010000
000000564302021783698916012016    00000000000000000600D00001000D00000000N00000000N000010000
000000565302021783698917012016    00000000000000000600D00001000D00000000N00000000N000010000
000000566302021783698918012016073200020830000000480600D00001000D00000000N00000000N000010000
000000567302021783698919012016075600020830000000080600D00001000D00000000N00000000N000010000
000000568302021783698920012016075100020830000000130600D00001000D00000000N00000000N000010000
000000569302021783698921012016075300020830000000170600D00001000D00000000N00000000N000010000
000000570302021783698922012016075600020830000000000600D00001000D00000000N00000000N000010000
000000571302021783698923012016    00000000000000000600D00001000D00000000N00000000N000010000
000000572302021783698924012016    00000000000000000600D00001000D00000000N00000000N000010000
000000573302021783698925012016075000020830000000240600D00001000D00000000N00000000N000010000
000000574302021783698926012016075300020824000000130600D00001000D00000000N00000000N000610000
000000575302021783698927012016075000020830000000130600D00001000D00000000N00000000N000010000
000000576302021783698928012016075400020830000000010600D00001000D00000000N00000000N000010000
000000577302021783698929012016075300020830000000020600D00001000D00000000N00000000N000010000
000000578302021783698930012016    00000000000000000600D00001000D00000000N00000000N000010000
000000579302021783698931012016    00000000000000000600D00001000D00000000N00000000N000010000
000000580302021783698901022016073600020830000000480600D00001000D00000000N00000000N000010000
000000581302021783698902022016075600020830000000000600D00001000D00000000N00000000N000010000
000000582302021783698903022016075300020830000000110600D00001000D00000000N00000000N000010000
000000583302021783698904022016075600020830000000000600D00001000D00000000N00000000N000010000
000000584302021783698905022016075500020830000000000600D00001000D00000000N00000000N000010000
000000585302021783698906022016    00000000000000000600D00001000D00000000N00000000N000010000
000000586302021783698907022016    00000000000000000600D00001000D00000000N00000000N000010000
000000587302021783698908022016    00020000000000000600D00001000D00000000N00000000N000010000
000000588302021783698909022016    00020000000000000600D00001000D00000000N00000000N000010000
000000589302021783698910022016075500020830000000120600D00001000D00000000N00000000N000010000
000000590302021783698911022016075600020830000000070600D00001000D00000000N00000000N000010000
000000591302021783698912022016075600020830000000000600D00001000D00000000N00000000N000010000
000000592302021783698913022016    00000000000000000600D00001000D00000000N00000000N000010000
000000593302021783698914022016    00000000000000000600D00001000D00000000N00000000N000010000
000000594302021783698915022016073900020830000000300600D00001000D00000000N00000000N000010000
000000595302021783698916022016075600020830000000160600D00001000D00000000N00000000N000010000
000000596302021783698917022016075900020830000000000600D00001000D00000000N00000000N000010000
000000597302021783698918022016075600020830000000000600D00001000D00000000N00000000N000010000
000000598302021783698919022016075800020830000000090600D00001000D00000000N00000000N000010000
000000599302021783698920022016    00000000000000000600D00001000D00000000N00000000N000010000
000000600302021783698921022016    00000000000000000600D00001000D00000000N00000000N000010000
000000601302021783698922022016073400020830000000340600D00001000D00000000N00000000N000010000
000000602302021783698923022016075800020830000000000600D00001000D00000000N00000000N000010000
000000603302021783698924022016075500020830000000000600D00001000D00000000N00000000N000010000
000000604302021783698925022016075700020830000000000600D00001000D00000000N00000000N000010000
000000605302021783698926022016075600020830000000060600D00001000D00000000N00000000N000010000
000000606302021783698927022016    00000000000000000600D00001000D00000000N00000000N000010000
000000607302021783698928022016    00000000000000000600D00001000D00000000N00000000N000010000
000000608302021783698929022016074800020830000000160600D00001000D00000000N00000000N000010000
000000609302021783698901032016075500020830000000070600D00001000D00000000N00000000N000010000
000000610302021783698902032016075900020830000000000600D00001000D00000000N00000000N000010000
000000611302021783698903032016075700020830000000100600D00001000D00000000N00000000N000010000
000000612302021783698904032016075400020830000000010600D00001000D00000000N00000000N000010000
000000613302021783698905032016    00000000000000000600D00001000D00000000N00000000N000010000
000000614302021783698906032016    00000000000000000600D00001000D00000000N00000000N000010000
000000615302021783698907032016073700020830000000260600D00001000D00000000N00000000N000010000
000000616302021783698908032016075600020830000000120600D00001000D00000000N00000000N000010000
000000617302021783698909032016073000020830000000310600D00001000D00000000N00000000N000010000
000000618302021783698910032016075800020830000000000600D00001000D00000000N00000000N000010000
000000619302021783698911032016080400020830000000000600D00001000D00000000N00000000N000010000
000000620302021783698912032016    00000000000000000600D00001000D00000000N00000000N000010000
000000621302021783698913032016    00000000000000000600D00001000D00000000N00000000N000010000
000000622302021783698914032016074000020830000000210600D00001000D00000000N00000000N000010000
000000623302021783698915032016075600020830000000000600D00001000D00000000N00000000N000010000
000000624302021783698916032016080000020830000000000600D00001000D00000000N00000000N000010000
000000625302021783698917032016075900020830000000000600D00001000D00000000N00000000N000010000
000000626302021783698918032016075800020830000000000600D00001000D00000000N00000000N000010000
000000627302021783698919032016    00000000000000000600D00001000D00000000N00000000N000010000
000000628302021783698920032016    00000000000000000600D00001000D00000000N00000000N000010000
000000629302021783698921032016073400020830000000280600D00001000D00000000N00000000N000010000
000000630302021783698922032016075500020830000000000600D00001000D00000000N00000000N000010000
000000631302021783698923032016075800020830000000090600D00001000D00000000N00000000N000010000
000000632302021783698924032016080100020808000000000600D00001000D00000000N00000000N002210000
000000633302021783698925032016    00000000000000000600D00001000D00000000N00000000N000010000
000000634302021783698926032016    00000000000000000600D00001000D00000000N00000000N000010000
000000635302021783698927032016    00000000000000000600D00001000D00000000N00000000N000010000
000000636302021783698928032016075200020830000000030600D00001000D00000000N00000000N000010000
000000637302021783698929032016075700020830000000000600D00001000D00000000N00000000N000010000
000000638302021783698930032016075500020830000000000600D00001000D00000000N00000000N000010000
000000639302021783698931032016075900020830000000000600D00001000D00000000N00000000N000010000
000000640302021783698901042016080000020830000000000600D00001000D00000000N00000000N000010000
000000641302021783698902042016    00000000000000000600D00001000D00000000N00000000N000010000
000000642302021783698903042016    00000000000000000600D00001000D00000000N00000000N000010000
000000643302021783698904042016074400020830000000180600D00001000D00000000N00000000N000010000
000000644302021783698905042016075700020830000000020600D00001000D00000000N00000000N000010000
000000645302021783698906042016080500020830000000000600D00001000D00000000N00000000N000010000
000000646302021783698907042016075700020830000000090600D00001000D00000000N00000000N000010000
000000647302021783698908042016080100020830000000000600D00001000D00000000N00000000N000010000
000000648302021783698909042016    00000000000000000600D00001000D00000000N00000000N000010000
000000649302021783698910042016    00000000000000000600D00001000D00000000N00000000N000010000
000000650302021783698911042016073300020830000000300600D00001000D00000000N00000000N000010000
000000651302021783698912042016075800020830000000000600D00001000D00000000N00000000N000010000
000000652302021783698913042016073400020000000000000600D00001000D00000000N00000000N083010000
000000657302021337148501012016    00020000000000000600D00001000D00000000N00000000N000010000
000000658302021337148502012016    00000000000000000600D00001000D00000000N00000000N000010000
000000659302021337148503012016    00000000000000000600D00001000D00000000N00000000N000010000
000000660302021337148504012016075900020830000000000600D00001000D00000000N00000000N000010000
000000661302021337148505012016075400020830000000010600D00001000D00000000N00000000N000010000
000000662302021337148506012016080200020830000000000600D00001000D00000000N00000000N000010000
000000663302021337148507012016075500020830000000090600D00001000D00000000N00000000N000010000
000000664302021337148508012016075700020830000000000600D00001000D00000000N00000000N000010000
000000665302021337148509012016    00000000000000000600D00001000D00000000N00000000N000010000
000000666302021337148510012016    00000000000000000600D00001000D00000000N00000000N000010000
000000667302021337148511012016080300020830000000000600D00001000D00000000N00000000N000010000
000000668302021337148512012016080600020829000000000600D00001000D00000000N00000000N000110000
000000669302021337148513012016081000020818000000000600D00001000D00000000N00000000N001210000
000000670302021337148514012016080200020830000000000600D00001000D00000000N00000000N000010000
000000671302021337148515012016080000020830000000070600D00001000D00000000N00000000N000010000
000000672302021337148516012016    00000000000000000600D00001000D00000000N00000000N000010000
000000673302021337148517012016    00000000000000000600D00001000D00000000N00000000N000010000
000000674302021337148518012016    00020000000000000600D00001000D00000000N00000000N000010000
000000675302021337148519012016    00020000000000000600D00001000D00000000N00000000N000010000
000000676302021337148520012016    00020000000000000600D00001000D00000000N00000000N000010000
000000677302021337148521012016    00020000000000000600D00001000D00000000N00000000N000010000
000000678302021337148522012016    00020000000000000600D00001000D00000000N00000000N000010000
000000679302021337148523012016    00000000000000000600D00001000D00000000N00000000N000010000
000000680302021337148524012016    00000000000000000600D00001000D00000000N00000000N000010000
000000681302021337148525012016    00020000000000000600D00001000D00000000N00000000N000010000
000000682302021337148526012016    00020000000000000600D00001000D00000000N00000000N000010000
000000683302021337148527012016    00020000000000000600D00001000D00000000N00000000N000010000
000000684302021337148528012016    00020000000000000600D00001000D00000000N00000000N000010000
000000685302021337148529012016    00020000000000000600D00001000D00000000N00000000N000010000
000000686302021337148530012016    00000000000000000600D00001000D00000000N00000000N000010000
000000687302021337148531012016    00000000000000000600D00001000D00000000N00000000N000010000
000000688302021337148501022016    00020000000000000600D00001000D00000000N00000000N000010000
000000689302021337148502022016    00020000000000000600D00001000D00000000N00000000N000010000
000000690302021337148503022016    00020000000000000600D00001000D00000000N00000000N000010000
000000691302021337148504022016    00020000000000000600D00001000D00000000N00000000N000010000
000000692302021337148505022016    00020000000000000600D00001000D00000000N00000000N000010000
000000693302021337148506022016    00000000000000000600D00001000D00000000N00000000N000010000
000000694302021337148507022016    00000000000000000600D00001000D00000000N00000000N000010000
000000695302021337148508022016    00020000000000000600D00001000D00000000N00000000N000010000
000000696302021337148509022016    00020000000000000600D00001000D00000000N00000000N000010000
000000697302021337148510022016    00020000000000000600D00001000D00000000N00000000N000010000
000000698302021337148511022016    00020000000000000600D00001000D00000000N00000000N000010000
000000699302021337148512022016    00020000000000000600D00001000D00000000N00000000N000010000
000000700302021337148513022016    00000000000000000600D00001000D00000000N00000000N000010000
000000701302021337148514022016    00000000000000000600D00001000D00000000N00000000N000010000
000000702302021337148515022016    00020000000000000600D00001000D00000000N00000000N000010000
000000703302021337148516022016    00020000000000000600D00001000D00000000N00000000N000010000
000000704302021337148517022016080200020830000000140600D00001000D00000000N00000000N000010000
000000705302021337148518022016075600020830000000060600D00001000D00000000N00000000N000010000
000000706302021337148519022016080000020830000000000600D00001000D00000000N00000000N000010000
000000707302021337148520022016    00000000000000000600D00001000D00000000N00000000N000010000
000000708302021337148521022016    00000000000000000600D00001000D00000000N00000000N000010000
000000709302021337148522022016075700020830000000000600D00001000D00000000N00000000N000010000
000000710302021337148523022016075600020830000000010600D00001000D00000000N00000000N000010000
000000711302021337148524022016075500020830000000060600D00001000D00000000N00000000N000010000
000000712302021337148525022016075900020830000000070600D00001000D00000000N00000000N000010000
000000713302021337148526022016080000020830000000000600D00001000D00000000N00000000N000010000
000000714302021337148527022016    00000000000000000600D00001000D00000000N00000000N000010000
000000715302021337148528022016    00000000000000000600D00001000D00000000N00000000N000010000
000000716302021337148529022016080300020830000000000600D00001000D00000000N00000000N000010000
000000717302021337148501032016075600020830000000000600D00001000D00000000N00000000N000010000
000000718302021337148502032016075900020830000000000600D00001000D00000000N00000000N000010000
000000719302021337148503032016075600020830000000000600D00001000D00000000N00000000N000010000
000000720302021337148504032016075200020830000000030600D00001000D00000000N00000000N000010000
000000721302021337148505032016    00000000000000000600D00001000D00000000N00000000N000010000
000000722302021337148506032016    00000000000000000600D00001000D00000000N00000000N000010000
000000723302021337148507032016075600020830000000000600D00001000D00000000N00000000N000010000
000000724302021337148508032016075700020830000000000600D00001000D00000000N00000000N000010000
000000725302021337148509032016075900020830000000000600D00001000D00000000N00000000N000010000
000000726302021337148510032016075500020830000000080600D00001000D00000000N00000000N000010000
000000727302021337148511032016075500020830000000000600D00001000D00000000N00000000N000010000
000000728302021337148512032016    00000000000000000600D00001000D00000000N00000000N000010000
000000729302021337148513032016    00000000000000000600D00001000D00000000N00000000N000010000
000000730302021337148514032016080100020830000000000600D00001000D00000000N00000000N000010000
000000731302021337148515032016080000020830000000000600D00001000D00000000N00000000N000010000
000000732302021337148516032016075700020830000000000600D00001000D00000000N00000000N000010000
000000733302021337148517032016075800020830000000000600D00001000D00000000N00000000N000010000
000000734302021337148518032016075700020830000000000600D00001000D00000000N00000000N000010000
000000735302021337148519032016    00000000000000000600D00001000D00000000N00000000N000010000
000000736302021337148520032016    00000000000000000600D00001000D00000000N00000000N000010000
000000737302021337148521032016075700020830000000000600D00001000D00000000N00000000N000010000
000000738302021337148522032016075600020830000000000600D00001000D00000000N00000000N000010000
000000739302021337148523032016075600020830000000100600D00001000D00000000N00000000N000010000
000000740302021337148524032016080200020807000000000600D00001000D00000000N00000000N002310000
000000741302021337148525032016    00000000000000000600D00001000D00000000N00000000N000010000
000000742302021337148526032016    00000000000000000600D00001000D00000000N00000000N000010000
000000743302021337148527032016    00000000000000000600D00001000D00000000N00000000N000010000
000000744302021337148528032016080200020830000000000600D00001000D00000000N00000000N000010000
000000745302021337148529032016075500020830000000060600D00001000D00000000N00000000N000010000
000000746302021337148530032016080200020830000000230600D00001000D00000000N00000000N000010000
000000747302021337148531032016075800020830000000100600D00001000D00000000N00000000N000010000
000000748302021337148501042016075800020505000001080600D00001000D00000000N00000000N032510000
000000749302021337148502042016    00000000000000000600D00001000D00000000N00000000N000010000
000000750302021337148503042016    00000000000000000600D00001000D00000000N00000000N000010000
000000751302021337148504042016075900020830000000090600D00001000D00000000N00000000N000010000
000000752302021337148505042016080000020830000000010600D00001000D00000000N00000000N000010000
000000753302021337148506042016080200020830000000000600D00001000D00000000N00000000N000010000
000000754302021337148507042016080100020830000000000600D00001000D00000000N00000000N000010000
000000755302021337148508042016075800020830000000000600D00001000D00000000N00000000N000010000
000000756302021337148509042016    00000000000000000600D00001000D00000000N00000000N000010000
000000757302021337148510042016    00000000000000000600D00001000D00000000N00000000N000010000
000000758302021337148511042016080400020830000000000600D00001000D00000000N00000000N000010000
000000759302021337148512042016080600020829000000100600D00001000D00000000N00000000N000110000
000000760302021337148513042016080200020000000000000600D00001000D00000000N00000000N083010000
000000765302021792119601012016    00020000000000000600D00001000D00000000N00000000N000010000
000000766302021792119602012016    00000000000000000600D00001000D00000000N00000000N000010000
000000767302021792119603012016    00000000000000000600D00001000D00000000N00000000N000010000
000000768302021792119604012016    00020000000000000600D00001000D00000000N00000000N000010000
000000769302021792119605012016    00020000000000000600D00001000D00000000N00000000N000010000
000000770302021792119606012016    00020000000000000600D00001000D00000000N00000000N000010000
000000771302021792119607012016    00020000000000000600D00001000D00000000N00000000N000010000
000000772302021792119608012016    00020000000000000600D00001000D00000000N00000000N000010000
000000773302021792119609012016    00000000000000000600D00001000D00000000N00000000N000010000
000000774302021792119610012016    00000000000000000600D00001000D00000000N00000000N000010000
000000775302021792119611012016    00020000000000000600D00001000D00000000N00000000N000010000
000000776302021792119612012016    00020000000000000600D00001000D00000000N00000000N000010000
000000777302021792119613012016    00020000000000000600D00001000D00000000N00000000N000010000
000000778302021792119614012016    00020000000000000600D00001000D00000000N00000000N000010000
000000779302021792119615012016    00020000000000000600D00001000D00000000N00000000N000010000
000000780302021792119616012016    00000000000000000600D00001000D00000000N00000000N000010000
000000781302021792119617012016    00000000000000000600D00001000D00000000N00000000N000010000
000000782302021792119618012016    00020000000000000600D00001000D00000000N00000000N000010000
000000783302021792119619012016    00020000000000000600D00001000D00000000N00000000N000010000
000000784302021792119620012016    00020000000000000600D00001000D00000000N00000000N000010000
000000785302021792119621012016    00020000000000000600D00001000D00000000N00000000N000010000
000000786302021792119622012016    00020000000000000600D00001000D00000000N00000000N000010000
000000787302021792119623012016    00000000000000000600D00001000D00000000N00000000N000010000
000000788302021792119624012016    00000000000000000600D00001000D00000000N00000000N000010000
000000789302021792119625012016    00020000000000000600D00001000D00000000N00000000N000010000
000000790302021792119626012016    00020000000000000600D00001000D00000000N00000000N000010000
000000791302021792119627012016    00020000000000000600D00001000D00000000N00000000N000010000
000000792302021792119628012016    00020000000000000600D00001000D00000000N00000000N000010000
000000793302021792119629012016    00020000000000000600D00001000D00000000N00000000N000010000
000000794302021792119630012016    00000000000000000600D00001000D00000000N00000000N000010000
000000795302021792119631012016    00000000000000000600D00001000D00000000N00000000N000010000
000000796302021792119601022016    00020000000000000600D00001000D00000000N00000000N000010000
000000797302021792119602022016    00020000000000000600D00001000D00000000N00000000N000010000
000000798302021792119603022016    00020000000000000600D00001000D00000000N00000000N083010000
000000799302021792119604022016080300020830000000000600D00001000D00000000N00000000N000010000
000000800302021792119605022016080000020830000000000600D00001000D00000000N00000000N000010000
000000801302021792119606022016    00000000000000000600D00001000D00000000N00000000N000010000
000000802302021792119607022016    00000000000000000600D00001000D00000000N00000000N000010000
000000803302021792119608022016    00020000000000000600D00001000D00000000N00000000N000010000
000000804302021792119609022016    00020000000000000600D00001000D00000000N00000000N000010000
000000805302021792119610022016075500020830000000000600D00001000D00000000N00000000N000010000
000000806302021792119611022016075700020830000000000600D00001000D00000000N00000000N000010000
000000807302021792119612022016075900020830000000000600D00001000D00000000N00000000N000010000
000000808302021792119613022016    00000000000000000600D00001000D00000000N00000000N000010000
000000809302021792119614022016    00000000000000000600D00001000D00000000N00000000N000010000
000000810302021792119615022016075700020830000000000600D00001000D00000000N00000000N000010000
000000811302021792119616022016075700020830000000000600D00001000D00000000N00000000N000010000
000000812302021792119617022016075800020830000000000600D00001000D00000000N00000000N000010000
000000813302021792119618022016075600020830000000010600D00001000D00000000N00000000N000010000
000000814302021792119619022016075600020830000000000600D00001000D00000000N00000000N000010000
000000815302021792119620022016    00000000000000000600D00001000D00000000N00000000N000010000
000000816302021792119621022016    00000000000000000600D00001000D00000000N00000000N000010000
000000817302021792119622022016075700020830000000000600D00001000D00000000N00000000N000010000
000000818302021792119623022016075500020830000000000600D00001000D00000000N00000000N000010000
000000819302021792119624022016075700020830000000000600D00001000D00000000N00000000N000010000
000000820302021792119625022016075300020830000000020600D00001000D00000000N00000000N000010000
000000821302021792119626022016075600020830000000000600D00001000D00000000N00000000N000010000
000000822302021792119627022016    00000000000000000600D00001000D00000000N00000000N000010000
000000823302021792119628022016    00000000000000000600D00001000D00000000N00000000N000010000
000000824302021792119629022016075900020830000000000600D00001000D00000000N00000000N000010000
000000825302021792119601032016075800020830000000000600D00001000D00000000N00000000N000010000
000000826302021792119602032016075700020830000000000600D00001000D00000000N00000000N000010000
000000827302021792119603032016075700020830000000000600D00001000D00000000N00000000N000010000
000000828302021792119604032016075800020830000000000600D00001000D00000000N00000000N000010000
000000829302021792119605032016    00000000000000000600D00001000D00000000N00000000N000010000
000000830302021792119606032016    00000000000000000600D00001000D00000000N00000000N000010000
000000831302021792119607032016075800020830000000000600D00001000D00000000N00000000N000010000
000000832302021792119608032016075400020830000000010600D00001000D00000000N00000000N000010000
000000833302021792119609032016075400020830000000010600D00001000D00000000N00000000N000010000
000000834302021792119610032016075500020830000000000600D00001000D00000000N00000000N000010000
000000835302021792119611032016075500020830000000000600D00001000D00000000N00000000N000010000
000000836302021792119612032016    00000000000000000600D00001000D00000000N00000000N000010000
000000837302021792119613032016    00000000000000000600D00001000D00000000N00000000N000010000
000000838302021792119614032016075400020830000000010600D00001000D00000000N00000000N000010000
000000839302021792119615032016075500020830000000000600D00001000D00000000N00000000N000010000
000000840302021792119616032016075700020830000000000600D00001000D00000000N00000000N000010000
000000841302021792119617032016075900020830000000000600D00001000D00000000N00000000N000010000
000000842302021792119618032016075700020830000000000600D00001000D00000000N00000000N000010000
000000843302021792119619032016    00000000000000000600D00001000D00000000N00000000N000010000
000000844302021792119620032016    00000000000000000600D00001000D00000000N00000000N000010000
000000845302021792119621032016075500020830000000000600D00001000D00000000N00000000N000010000
000000846302021792119622032016075500020830000000000600D00001000D00000000N00000000N000010000
000000847302021792119623032016075900020830000000000600D00001000D00000000N00000000N000010000
000000848302021792119624032016075700020800000000000600D00001000D00000000N00000000N003010000
000000849302021792119625032016    00000000000000000600D00001000D00000000N00000000N000010000
000000850302021792119626032016    00000000000000000600D00001000D00000000N00000000N000010000
000000851302021792119627032016    00000000000000000600D00001000D00000000N00000000N000010000
000000852302021792119628032016075500020830000000000600D00001000D00000000N00000000N000010000
000000853302021792119629032016075600020830000000000600D00001000D00000000N00000000N000010000
000000854302021792119630032016075300020830000000020600D00001000D00000000N00000000N000010000
000000855302021792119631032016075700020830000000000600D00001000D00000000N00000000N000010000
000000856302021792119601042016075900020830000000000600D00001000D00000000N00000000N000010000
000000857302021792119602042016    00000000000000000600D00001000D00000000N00000000N000010000
000000858302021792119603042016    00000000000000000600D00001000D00000000N00000000N000010000
000000859302021792119604042016075600020830000000000600D00001000D00000000N00000000N000010000
000000860302021792119605042016075800020830000000000600D00001000D00000000N00000000N000010000
000000861302021792119606042016075900020830000000000600D00001000D00000000N00000000N000010000
000000862302021792119607042016075600020830000000000600D00001000D00000000N00000000N000010000
000000863302021792119608042016075800020830000000000600D00001000D00000000N00000000N000010000
000000864302021792119609042016    00000000000000000600D00001000D00000000N00000000N000010000
000000865302021792119610042016    00000000000000000600D00001000D00000000N00000000N000010000
000000866302021792119611042016080100020830000000000600D00001000D00000000N00000000N000010000
000000867302021792119612042016075600020830000000000600D00001000D00000000N00000000N000010000
000000868302021792119613042016080000020000000000000600D00001000D00000000N00000000N083010000
000000873302021790343001012016    00020000000000000600D00001000D00000000N00000000N000010000
000000874302021790343002012016    00000000000000000600D00001000D00000000N00000000N000010000
000000875302021790343003012016    00000000000000000600D00001000D00000000N00000000N000010000
000000876302021790343004012016080000020830000000000600D00001000D00000000N00000000N000010000
000000877302021790343005012016075900020830000000000600D00001000D00000000N00000000N000010000
000000878302021790343006012016080000020830000000000600D00001000D00000000N00000000N000010000
000000879302021790343007012016075700020830000000000600D00001000D00000000N00000000N000010000
000000880302021790343008012016080000020830000000000600D00001000D00000000N00000000N000010000
000000881302021790343009012016    00000000000000000600D00001000D00000000N00000000N000010000
000000882302021790343010012016    00000000000000000600D00001000D00000000N00000000N000010000
000000883302021790343011012016075900020830000000000600D00001000D00000000N00000000N000010000
000000884302021790343012012016075800020830000000000600D00001000D00000000N00000000N000010000
000000885302021790343013012016080000020830000000000600D00001000D00000000N00000000N000010000
000000886302021790343014012016080000020830000000000600D00001000D00000000N00000000N000010000
000000887302021790343015012016075900020830000000000600D00001000D00000000N00000000N000010000
000000888302021790343016012016    00000000000000000600D00001000D00000000N00000000N000010000
000000889302021790343017012016    00000000000000000600D00001000D00000000N00000000N000010000
000000890302021790343018012016080100020830000000000600D00001000D00000000N00000000N000010000
000000891302021790343019012016075900020830000000000600D00001000D00000000N00000000N000010000
000000892302021790343020012016075900020830000000000600D00001000D00000000N00000000N000010000
000000893302021790343021012016080100020830000000000600D00001000D00000000N00000000N000010000
000000894302021790343022012016075800020830000000000600D00001000D00000000N00000000N000010000
000000895302021790343023012016    00000000000000000600D00001000D00000000N00000000N000010000
000000896302021790343024012016    00000000000000000600D00001000D00000000N00000000N000010000
000000897302021790343025012016080000020830000000000600D00001000D00000000N00000000N000010000
000000898302021790343026012016075800020830000000000600D00001000D00000000N00000000N000010000
000000899302021790343027012016080100020830000000000600D00001000D00000000N00000000N000010000
000000900302021790343028012016080000020830000000000600D00001000D00000000N00000000N000010000
000000901302021790343029012016080100020830000000000600D00001000D00000000N00000000N000010000
000000902302021790343030012016    00000000000000000600D00001000D00000000N00000000N000010000
000000903302021790343031012016    00000000000000000600D00001000D00000000N00000000N000010000
000000904302021790343001022016080000020830000000000600D00001000D00000000N00000000N000010000
000000905302021790343002022016075800020830000000000600D00001000D00000000N00000000N000010000
000000906302021790343003022016075900020830000000000600D00001000D00000000N00000000N000010000
000000907302021790343004022016080000020830000000000600D00001000D00000000N00000000N000010000
000000908302021790343005022016075700020830000000000600D00001000D00000000N00000000N000010000
000000909302021790343006022016    00000000000000000600D00001000D00000000N00000000N000010000
000000910302021790343007022016    00000000000000000600D00001000D00000000N00000000N000010000
000000911302021790343008022016    00020000000000000600D00001000D00000000N00000000N000010000
000000912302021790343009022016    00020000000000000600D00001000D00000000N00000000N000010000
000000913302021790343010022016075900020830000000000600D00001000D00000000N00000000N000010000
000000914302021790343011022016080000020830000000000600D00001000D00000000N00000000N000010000
000000915302021790343012022016080000020830000000000600D00001000D00000000N00000000N000010000
000000916302021790343013022016    00000000000000000600D00001000D00000000N00000000N000010000
000000917302021790343014022016    00000000000000000600D00001000D00000000N00000000N000010000
000000918302021790343015022016075800020830000000000600D00001000D00000000N00000000N000010000
000000919302021790343016022016080100020830000000000600D00001000D00000000N00000000N000010000
000000920302021790343017022016075900020830000000000600D00001000D00000000N00000000N000010000
000000921302021790343018022016080000020830000000000600D00001000D00000000N00000000N000010000
000000922302021790343019022016080000020830000000000600D00001000D00000000N00000000N000010000
000000923302021790343020022016    00000000000000000600D00001000D00000000N00000000N000010000
000000924302021790343021022016    00000000000000000600D00001000D00000000N00000000N000010000
000000925302021790343022022016075900020830000000000600D00001000D00000000N00000000N000010000
000000926302021790343023022016080000020830000000000600D00001000D00000000N00000000N000010000
000000927302021790343024022016080100020830000000000600D00001000D00000000N00000000N000010000
000000928302021790343025022016075800020830000000000600D00001000D00000000N00000000N000010000
000000929302021790343026022016075900020830000000000600D00001000D00000000N00000000N000010000
000000930302021790343027022016    00000000000000000600D00001000D00000000N00000000N000010000
000000931302021790343028022016    00000000000000000600D00001000D00000000N00000000N000010000
000000932302021790343029022016075900020830000000000600D00001000D00000000N00000000N000010000
000000933302021790343001032016080100020830000000000600D00001000D00000000N00000000N000010000
000000934302021790343002032016075900020830000000000600D00001000D00000000N00000000N000010000
000000935302021790343003032016080100020830000000000600D00001000D00000000N00000000N000010000
000000936302021790343004032016075900020830000000000600D00001000D00000000N00000000N000010000
000000937302021790343005032016    00000000000000000600D00001000D00000000N00000000N000010000
000000938302021790343006032016    00000000000000000600D00001000D00000000N00000000N000010000
000000939302021790343007032016075900020830000000000600D00001000D00000000N00000000N000010000
000000940302021790343008032016075700020830000000000600D00001000D00000000N00000000N000010000
000000941302021790343009032016080000020830000000000600D00001000D00000000N00000000N000010000
000000942302021790343010032016075900020830000000000600D00001000D00000000N00000000N000010000
000000943302021790343011032016080100020830000000000600D00001000D00000000N00000000N000010000
000000944302021790343012032016    00000000000000000600D00001000D00000000N00000000N000010000
000000945302021790343013032016    00000000000000000600D00001000D00000000N00000000N000010000
000000946302021790343014032016075700020830000000000600D00001000D00000000N00000000N000010000
000000947302021790343015032016075700020830000000000600D00001000D00000000N00000000N000010000
000000948302021790343016032016075700020830000000000600D00001000D00000000N00000000N000010000
000000949302021790343017032016075700020830000000000600D00001000D00000000N00000000N000010000
000000950302021790343018032016075800020830000000000600D00001000D00000000N00000000N000010000
000000951302021790343019032016    00000000000000000600D00001000D00000000N00000000N000010000
000000952302021790343020032016    00000000000000000600D00001000D00000000N00000000N000010000
000000953302021790343021032016075800020830000000000600D00001000D00000000N00000000N000010000
000000954302021790343022032016075500020830000000000600D00001000D00000000N00000000N000010000
000000955302021790343023032016075600020830000000000600D00001000D00000000N00000000N000010000
000000956302021790343024032016075600020800000000000600D00001000D00000000N00000000N003010000
000000957302021790343025032016    00000000000000000600D00001000D00000000N00000000N000010000
000000958302021790343026032016    00000000000000000600D00001000D00000000N00000000N000010000
000000959302021790343027032016    00000000000000000600D00001000D00000000N00000000N000010000
000000960302021790343028032016075800020830000000000600D00001000D00000000N00000000N000010000
000000961302021790343029032016075500020830000000000600D00001000D00000000N00000000N000010000
000000962302021790343030032016075800020830000000000600D00001000D00000000N00000000N000010000
000000963302021790343031032016075500020830000000000600D00001000D00000000N00000000N000010000
000000964302021790343001042016075200020830000000030600D00001000D00000000N00000000N000010000
000000965302021790343002042016    00000000000000000600D00001000D00000000N00000000N000010000
000000966302021790343003042016    00000000000000000600D00001000D00000000N00000000N000010000
000000967302021790343004042016075700020830000000000600D00001000D00000000N00000000N000010000
000000968302021790343005042016080000020830000000000600D00001000D00000000N00000000N000010000
000000969302021790343006042016080000020830000000000600D00001000D00000000N00000000N000010000
000000970302021790343007042016080000020830000000000600D00001000D00000000N00000000N000010000
000000971302021790343008042016075600020830000000000600D00001000D00000000N00000000N000010000
000000972302021790343009042016    00000000000000000600D00001000D00000000N00000000N000010000
000000973302021790343010042016    00000000000000000600D00001000D00000000N00000000N000010000
000000974302021790343011042016075600020830000000000600D00001000D00000000N00000000N000010000
000000975302021790343012042016091600020714000000000600D00001000D00000000N00000000N011610000
000000976302021790343013042016080000020000000000000600D00001000D00000000N00000000N083010000
000000981301342017677401012016    00030000000000000000D00000000N00000000N00000000N000010000
000000982301342017677402012016    00000000000000000000D00000000N00000000N00000000N000010000
000000983301342017677403012016    00000000000000000000D00000000N00000000N00000000N000010000
000000984301342017677404012016073500030822000000000000D00000000N00000000N00000000N000810000
000000985301342017677405012016074300030806000000000000D00000000N00000000N00000000N002410000
000000986301342017677406012016073500030830000000000000D00000000N00000000N00000000N000010000
000000987301342017677407012016073700030818000000000000D00000000N00000000N00000000N001210000
000000988301342017677408012016073700030821000000000000D00000000N00000000N00000000N000910000
000000989301342017677409012016    00000000000000000000D00000000N00000000N00000000N000010000
000000990301342017677410012016    00000000000000000000D00000000N00000000N00000000N000010000
000000991301342017677411012016072100030819000000040000D00000000N00000000N00000000N001110000
000000992301342017677412012016071700030830000000130000D00000000N00000000N00000000N000010000
000000993301342017677413012016072700030821000000000000D00000000N00000000N00000000N000910000
000000994301342017677414012016073000030823000000000000D00000000N00000000N00000000N000710000
000000995301342017677415012016073300030824000000000000D00000000N00000000N00000000N000610000
000000996301342017677416012016    00000000000000000000D00000000N00000000N00000000N000010000
000000997301342017677417012016    00000000000000000000D00000000N00000000N00000000N000010000
000000998301342017677418012016073300030830000000000000D00000000N00000000N00000000N000010000
000000999301342017677419012016073600030817000000000000D00000000N00000000N00000000N001310000
000001000301342017677420012016073700030821000000000000D00000000N00000000N00000000N000910000
000001001301342017677421012016073400030823000000000000D00000000N00000000N00000000N000710000
000001002301342017677422012016073000030822000000000000D00000000N00000000N00000000N000810000
000001003301342017677423012016    00000000000000000000D00000000N00000000N00000000N000010000
000001004301342017677424012016    00000000000000000000D00000000N00000000N00000000N000010000
000001005301342017677425012016072600030823000000000000D00000000N00000000N00000000N000710000
000001006301342017677426012016072900030821000000000000D00000000N00000000N00000000N000910000
000001007301342017677427012016073600030821000000000000D00000000N00000000N00000000N000910000
000001008301342017677428012016073200030830000000000000D00000000N00000000N00000000N000010000
000001009301342017677429012016073500030830000000170000D00000000N00000000N00000000N000010000
000001010301342017677430012016    00000000000000000000D00000000N00000000N00000000N000010000
000001011301342017677431012016    00000000000000000000D00000000N00000000N00000000N000010000
000001012301342017677401022016073800030827000000000000D00000000N00000000N00000000N000310000
000001013301342017677402022016073100030819000000000000D00000000N00000000N00000000N001110000
000001014301342017677403022016073400030830000000000000D00000000N00000000N00000000N000010000
000001015301342017677404022016073400030822000000000000D00000000N00000000N00000000N000810000
000001016301342017677405022016072500030900000000000000D00000000N00000000N00000000N000010000
000001017301342017677406022016    00000000000000000000D00000000N00000000N00000000N000010000
000001018301342017677407022016    00000000000000000000D00000000N00000000N00000000N000010000
000001019301342017677408022016    00030000000000000000D00000000N00000000N00000000N000010000
000001020301342017677409022016    00030000000000000000D00000000N00000000N00000000N000010000
000001021301342017677410022016073200030830000000000000D00000000N00000000N00000000N000010000
000001022301342017677411022016073700030822000000000000D00000000N00000000N00000000N000810000
000001023301342017677412022016073200030830000000000000D00000000N00000000N00000000N000010000
000001024301342017677413022016    00000000000000000000D00000000N00000000N00000000N000010000
000001025301342017677414022016    00000000000000000000D00000000N00000000N00000000N000010000
000001026301342017677415022016073600030820000000000000D00000000N00000000N00000000N001010000
000001027301342017677416022016073200030822000000000000D00000000N00000000N00000000N000810000
000001028301342017677417022016074600030814000000110000D00000000N00000000N00000000N001610000
000001029301342017677418022016072800030820000000000000D00000000N00000000N00000000N001010000
000001030301342017677419022016073400030822000000000000D00000000N00000000N00000000N000810000
000001031301342017677420022016    00000000000000000000D00000000N00000000N00000000N000010000
000001032301342017677421022016    00000000000000000000D00000000N00000000N00000000N000010000
000001033301342017677422022016073000030822000000000000D00000000N00000000N00000000N000810000
000001034301342017677423022016073300030830000000000000D00000000N00000000N00000000N000010000
000001035301342017677424022016072800030819000000000000D00000000N00000000N00000000N001110000
000001036301342017677425022016073400030823000000000000D00000000N00000000N00000000N000710000
000001037301342017677426022016072600030824000000000000D00000000N00000000N00000000N000610000
000001038301342017677427022016    00000000000000000000D00000000N00000000N00000000N000010000
000001039301342017677428022016    00000000000000000000D00000000N00000000N00000000N000010000
000001040301342017677429022016073000030822000000000000D00000000N00000000N00000000N000810000
000001041301342017677401032016074200030806000000000000D00000000N00000000N00000000N002410000
000001042301342017677402032016073100030824000000000000D00000000N00000000N00000000N000610000
000001043301342017677403032016073100030822000000000000D00000000N00000000N00000000N000810000
000001044301342017677404032016072900030815000000000000D00000000N00000000N00000000N001510000
000001045301342017677405032016    00000000000000000000D00000000N00000000N00000000N000010000
000001046301342017677406032016    00000000000000000000D00000000N00000000N00000000N000010000
000001047301342017677407032016072700030815000000000000D00000000N00000000N00000000N001510000
000001048301342017677408032016073000030820000000320000D00000000N00000000N00000000N001010000
000001049301342017677409032016073400030817000000000000D00000000N00000000N00000000N001310000
000001050301342017677410032016073800030821000000000000D00000000N00000000N00000000N000910000
000001051301342017677411032016073000030431000000000000D00000000N00000000N00000000N035910000
000001052301342017677412032016    00000000000000000000D00000000N00000000N00000000N000010000
000001053301342017677413032016    00000000000000000000D00000000N00000000N00000000N000010000
000001054301342017677414032016073200030805000000000000D00000000N00000000N00000000N002510000
000001055301342017677415032016072700030820000000000000D00000000N00000000N00000000N001010000
000001056301342017677416032016072900030816000000000000D00000000N00000000N00000000N001410000
000001057301342017677417032016073500030824000000030000D00000000N00000000N00000000N000610000
000001058301342017677418032016074100030819000000000000D00000000N00000000N00000000N001110000
000001059301342017677419032016    00000000000000000000D00000000N00000000N00000000N000010000
000001060301342017677420032016    00000000000000000000D00000000N00000000N00000000N000010000
000001061301342017677421032016073000030823000000000000D00000000N00000000N00000000N000710000
000001062301342017677422032016073200030813000000000000D00000000N00000000N00000000N001710000
000001063301342017677423032016073100030821000000000000D00000000N00000000N00000000N000910000
000001064301342017677424032016073100030823000000000000D00000000N00000000N00000000N000710000
000001065301342017677425032016    00000000000000000000D00000000N00000000N00000000N000010000
000001066301342017677426032016    00000000000000000000D00000000N00000000N00000000N000010000
000001067301342017677427032016    00000000000000000000D00000000N00000000N00000000N000010000
000001068301342017677428032016073700030821000000000000D00000000N00000000N00000000N000910000
000001069301342017677429032016073200030822000000000000D00000000N00000000N00000000N000810000
000001070301342017677430032016073500030830000000000000D00000000N00000000N00000000N000010000
000001071301342017677431032016074700030807000000000000D00000000N00000000N00000000N002310000
000001072301342017677401042016073100030823000000000000D00000000N00000000N00000000N000710000
000001073301342017677402042016    00000000000000000000D00000000N00000000N00000000N000010000
000001074301342017677403042016    00000000000000000000D00000000N00000000N00000000N000010000
000001075301342017677404042016073400030731000000000000D00000000N00000000N00000000N005910000
000001076301342017677405042016073100030819000000000000D00000000N00000000N00000000N001110000
000001077301342017677406042016    00030000000000000000D00000000N00000000N00000000N083010000
000001078301342017677407042016072400030820000000010000D00000000N00000000N00000000N001010000
000001079301342017677408042016073900030816000000000000D00000000N00000000N00000000N001410000
000001080301342017677409042016    00000000000000000000D00000000N00000000N00000000N000010000
000001081301342017677410042016    00000000000000000000D00000000N00000000N00000000N000010000
000001082301342017677411042016073100030821000000010000D00000000N00000000N00000000N000910000
000001083301342017677412042016073000030830000000000000D00000000N00000000N00000000N000010000
000001084301342017677413042016073400030000000000000000D00000000N00000000N00000000N083010000
000001089302021789431801012016    00030000000000000000D00000000N00000000N00000000N000010000
000001090302021789431802012016    00000000000000000000D00000000N00000000N00000000N000010000
000001091302021789431803012016    00000000000000000000D00000000N00000000N00000000N000010000
000001092302021789431804012016071900030830000000110000D00000000N00000000N00000000N000010000
000001093302021789431805012016072200030830000000100000D00000000N00000000N00000000N000010000
000001094302021789431806012016072200030830000000030000D00000000N00000000N00000000N000010000
000001095302021789431807012016072200030830000000030000D00000000N00000000N00000000N000010000
000001096302021789431808012016072200030830000000030000D00000000N00000000N00000000N000010000
000001097302021789431809012016    00000000000000000000D00000000N00000000N00000000N000010000
000001098302021789431810012016    00000000000000000000D00000000N00000000N00000000N000010000
000001099302021789431811012016072200030830000000030000D00000000N00000000N00000000N000010000
000001100302021789431812012016084300030830000000000000D00000000N00000000N00000000N000010000
000001101302021789431813012016072700030830000000000000D00000000N00000000N00000000N000010000
000001102302021789431814012016072400030830000000010000D00000000N00000000N00000000N000010000
000001103302021789431815012016072600030830000000000000D00000000N00000000N00000000N000010000
000001104302021789431816012016    00000000000000000000D00000000N00000000N00000000N000010000
000001105302021789431817012016    00000000000000000000D00000000N00000000N00000000N000010000
000001106302021789431818012016072300030830000000170000D00000000N00000000N00000000N000010000
000001107302021789431819012016072500030830000000000000D00000000N00000000N00000000N000010000
000001108302021789431820012016072500030830000000000000D00000000N00000000N00000000N000010000
000001109302021789431821012016072500030830000000000000D00000000N00000000N00000000N000010000
000001110302021789431822012016072200030830000000030000D00000000N00000000N00000000N000010000
000001111302021789431823012016    00000000000000000000D00000000N00000000N00000000N000010000
000001112302021789431824012016    00000000000000000000D00000000N00000000N00000000N000010000
000001113302021789431825012016072300030830000000020000D00000000N00000000N00000000N000010000
000001114302021789431826012016072400030830000000010000D00000000N00000000N00000000N000010000
000001115302021789431827012016072500030830000000000000D00000000N00000000N00000000N000010000
000001116302021789431828012016072700030830000000000000D00000000N00000000N00000000N000010000
000001117302021789431829012016072000030830000000110000D00000000N00000000N00000000N000010000
000001118302021789431830012016    00000000000000000000D00000000N00000000N00000000N000010000
000001119302021789431831012016    00000000000000000000D00000000N00000000N00000000N000010000
