0000000011119089534000164000000000000TREZO SOLUCOES WEB LTDA EPP                                                                                                                           0109201730092017021020171020
000000002201092017090002076399069200004001900059979E01IESQUECEU DE BATER                                                                                   
000000003201092017115902076399069200004001900059979S01O                                                                                                    
000000004201092017130002076399069200004001900059979E02IESQUECEU DE BATER                                                                                   
000000005201092017190002076399069200004001900059979S02IESQUECEU DE BATER                                                                                   
000000006202092017160002076399069200004001900059979E01ITRABALHANDO DE CASA                                                                                 
000000007202092017180002076399069200004001900059979S01ITRABALHANDO DE CASA                                                                                 
000000008204092017090002076399069200004001900059979E01IESQUECEU DE BATER                                                                                   
000000009204092017120002076399069200004001900059979S01IESQUECEU DE BATER                                                                                   
000000010204092017130002076399069200004001900059979E02IESQUECEU DE BATER                                                                                   
000000011204092017190102076399069200004001900059979S02O                                                                                                    
000000012205092017090002076399069200004001900059979E01IESQUECEU DE BATER                                                                                   
000000013205092017121402076399069200004001900059979S01O                                                                                                    
000000014205092017132002076399069200004001900059979E02O                                                                                                    
000000015205092017172402076399069200004001900059979S02O                                                                                                    
000000016206092017090002076399069200004001900059979E01IESQUECEU DE BATER                                                                                   
000000017206092017120002076399069200004001900059979S01O                                                                                                    
000000018206092017123002076399069200004001900059979E02IESQUECEU DE BATER                                                                                   
000000019206092017180002076399069200004001900059979S02IESQUECEU DE BATER                                                                                   
000000020207092017080002076399069200004001900059979E01IESTAVAMOS SEM O PONTO                                                                               
000000021207092017120002076399069200004001900059979S01IESTAVAMOS SEM O PONTO                                                                               
000000022207092017133002076399069200004001900059979E02IESTAVAMOS SEM O PONTO                                                                               
000000023207092017180002076399069200004001900059979S02IESTAVAMOS SEM O PONTO                                                                               
000000024211092017080002076399069200004001900059979E01IESTAVAMOS SEM O PONTO                                                                               
000000025211092017120002076399069200004001900059979S01IESTAVAMOS SEM O PONTO                                                                               
000000026211092017133002076399069200004001900059979E02IESTAVAMOS SEM O PONTO                                                                               
000000027211092017180002076399069200004001900059979S02IESTAVAMOS SEM O PONTO                                                                               
000000028212092017080002076399069200004001900059979E01IESTAVAMOS SEM O PONTO                                                                               
000000029212092017120002076399069200004001900059979S01IESTAVAMOS SEM O PONTO                                                                               
000000030212092017133002076399069200004001900059979E02IESTAVAMOS SEM O PONTO                                                                               
000000031212092017180002076399069200004001900059979S02IESTAVAMOS SEM O PONTO                                                                               
000000032213092017080002076399069200004001900059979E01IESTAVAMOS SEM O PONTO                                                                               
000000033213092017120002076399069200004001900059979S01IESTAVAMOS SEM O PONTO                                                                               
000000034213092017133002076399069200004001900059979E02IESTAVAMOS SEM O PONTO                                                                               
000000035213092017180002076399069200004001900059979S02IESTAVAMOS SEM O PONTO                                                                               
000000036214092017100602076399069200004001900059979E01O                                                                                                    
000000037214092017101002076399069200004001900059979D00OBatida duplicada                                                                                    
000000038214092017101002076399069200004001900059979D00OBatida duplicada                                                                                    
000000039214092017121702076399069200004001900059979D00OBatida duplicada                                                                                    
000000040214092017121702076399069200004001900059979S01O                                                                                                    
000000041214092017132702076399069200004001900059979E02O                                                                                                    
000000042214092017173102076399069200004001900059979S02O                                                                                                    
000000043215092017090002076399069200004001900059979E01IESQUECEU DE BATER                                                                                   
000000044215092017130002076399069200004001900059979S01IESQUECEU DE BATER                                                                                   
000000045218092017090002076399069200004001900059979E01IESQUECEU DE BATER                                                                                   
000000046218092017123002076399069200004001900059979S01IESQUECEU DE BATER                                                                                   
000000047218092017134702076399069200004001900059979E02O                                                                                                    
000000048218092017190502076399069200004001900059979S02O                                                                                                    
000000049219092017091202076399069200004001900059979E01O                                                                                                    
000000050219092017121502076399069200004001900059979S01O                                                                                                    
000000051219092017132202076399069200004001900059979E02O                                                                                                    
000000052219092017175602076399069200004001900059979S02O                                                                                                    
000000053220092017090002076399069200004001900059979E01IESQUECEU DE BATER                                                                                   
000000054220092017122002076399069200004001900059979S01O                                                                                                    
000000055220092017130002076399069200004001900059979E02IESQUECEU DE BATER                                                                                   
000000056220092017171202076399069200004001900059979S02O                                                                                                    
000000057221092017091602076399069200004001900059979E01O                                                                                                    
000000058221092017122002076399069200004001900059979S01O                                                                                                    
000000059221092017132002076399069200004001900059979E02IESQUECEU DE BATER                                                                                   
000000060221092017192302076399069200004001900059979S02O                                                                                                    
000000061225092017090802076399069200004001900059979E01O                                                                                                    
000000062225092017121902076399069200004001900059979S01O                                                                                                    
000000063225092017133002076399069200004001900059979E02IESQUECEU DE BATER                                                                                   
000000064225092017190002076399069200004001900059979S02IESQUECEU DE BATER                                                                                   
000000065226092017090002076399069200004001900059979E01IESQUECEU DE BATER                                                                                   
000000066226092017122202076399069200004001900059979S01O                                                                                                    
000000067226092017133002076399069200004001900059979E02IESQUECEU DE BATER                                                                                   
000000068226092017190002076399069200004001900059979S02IESQUECEU DE BATER                                                                                   
000000069227092017091302076399069200004001900059979E01O                                                                                                    
000000070227092017120002076399069200004001900059979S01IESQUECEU DE BATER                                                                                   
000000071227092017133202076399069200004001900059979E02O                                                                                                    
000000072227092017173602076399069200004001900059979S02O                                                                                                    
000000073228092017102802076399069200004001900059979E01O                                                                                                    
000000074228092017121902076399069200004001900059979S01O                                                                                                    
000000075228092017133002076399069200004001900059979E02IESQUECEU DE BATER                                                                                   
000000076228092017200002076399069200004001900059979S02IESQUECEU DE BATER                                                                                   
000000077229092017090002076399069200004001900059979E01IESQUECEU DE BATER                                                                                   
000000078229092017122002076399069200004001900059979S01O                                                                                                    
000000079201092017090402008901929000004001900059979E01O                                                                                                    
000000080201092017114402008901929000004001900059979S01O                                                                                                    
000000081201092017131602008901929000004001900059979E02O                                                                                                    
000000082201092017183002008901929000004001900059979S02O                                                                                                    
000000083204092017085502008901929000004001900059979E01O                                                                                                    
000000084204092017114202008901929000004001900059979S01O                                                                                                    
000000085204092017132302008901929000004001900059979E02O                                                                                                    
000000086204092017192702008901929000004001900059979S02O                                                                                                    
000000087205092017091802008901929000004001900059979E01O                                                                                                    
000000088205092017114302008901929000004001900059979S01O                                                                                                    
000000089205092017131702008901929000004001900059979E02O                                                                                                    
000000090205092017195402008901929000004001900059979S02O                                                                                                    
000000091206092017091302008901929000004001900059979E01O                                                                                                    
000000092206092017114002008901929000004001900059979S01O                                                                                                    
000000093206092017132002008901929000004001900059979E02O                                                                                                    
000000094206092017180002008901929000004001900059979S02IESQUECEU DE BATER                                                                                   
000000095207092017080002008901929000004001900059979E01IESTAVAMOS SEM O PONTO                                                                               
000000096207092017120002008901929000004001900059979S01IESTAVAMOS SEM O PONTO                                                                               
000000097207092017133002008901929000004001900059979E02IESTAVAMOS SEM O PONTO                                                                               
000000098207092017180002008901929000004001900059979S02IESTAVAMOS SEM O PONTO                                                                               
000000099211092017080002008901929000004001900059979E01IESTAVAMOS SEM O PONTO                                                                               
000000100211092017120002008901929000004001900059979S01IESTAVAMOS SEM O PONTO                                                                               
000000101211092017133002008901929000004001900059979E02IESTAVAMOS SEM O PONTO                                                                               
000000102211092017180002008901929000004001900059979S02IESTAVAMOS SEM O PONTO                                                                               
000000103212092017080002008901929000004001900059979E01IESTAVAMOS SEM O PONTO                                                                               
000000104212092017120002008901929000004001900059979S01IESTAVAMOS SEM O PONTO                                                                               
000000105212092017133002008901929000004001900059979E02IESTAVAMOS SEM O PONTO                                                                               
000000106212092017180002008901929000004001900059979S02IESTAVAMOS SEM O PONTO                                                                               
000000107213092017080002008901929000004001900059979E01IESTAVAMOS SEM O PONTO                                                                               
000000108213092017120002008901929000004001900059979S01IESTAVAMOS SEM O PONTO                                                                               
000000109213092017133002008901929000004001900059979E02IESTAVAMOS SEM O PONTO                                                                               
000000110213092017180002008901929000004001900059979S02IESTAVAMOS SEM O PONTO                                                                               
000000111214092017090402008901929000004001900059979E01O                                                                                                    
000000112214092017120002008901929000004001900059979S01O                                                                                                    
000000113214092017134202008901929000004001900059979E02O                                                                                                    
000000114214092017195002008901929000004001900059979S02O                                                                                                    
000000115215092017091602008901929000004001900059979E01O                                                                                                    
000000116215092017120002008901929000004001900059979S01O                                                                                                    
000000117215092017133302008901929000004001900059979E02O                                                                                                    
000000118215092017215202008901929000004001900059979S02O                                                                                                    
000000119218092017085402008901929000004001900059979E01O                                                                                                    
000000120218092017120302008901929000004001900059979S01O                                                                                                    
000000121218092017134202008901929000004001900059979E02O                                                                                                    
000000122218092017192402008901929000004001900059979S02O                                                                                                    
000000123219092017091402008901929000004001900059979E01O                                                                                                    
000000124219092017120002008901929000004001900059979S01O                                                                                                    
000000125219092017134102008901929000004001900059979E02O                                                                                                    
000000126219092017181202008901929000004001900059979S02O                                                                                                    
000000127220092017091002008901929000004001900059979E01O                                                                                                    
000000128220092017120002008901929000004001900059979S01O                                                                                                    
000000129220092017133202008901929000004001900059979E02O                                                                                                    
000000130220092017203702008901929000004001900059979S02O                                                                                                    
000000131221092017094902008901929000004001900059979E01O                                                                                                    
000000132221092017120902008901929000004001900059979S01O                                                                                                    
000000133221092017132302008901929000004001900059979E02O                                                                                                    
000000134221092017193802008901929000004001900059979S02O                                                                                                    
000000135222092017080002008901929000004001900059979E01IESQUECEU DE BATER                                                                                   
000000136222092017120002008901929000004001900059979S01O                                                                                                    
000000137222092017132802008901929000004001900059979E02O                                                                                                    
000000138222092017204302008901929000004001900059979S02O                                                                                                    
000000139225092017090302008901929000004001900059979E01O                                                                                                    
000000140225092017120002008901929000004001900059979S01O                                                                                                    
000000141225092017134002008901929000004001900059979E02O                                                                                                    
000000142225092017180602008901929000004001900059979S02O                                                                                                    
000000143226092017093502008901929000004001900059979E01O                                                                                                    
000000144226092017120002008901929000004001900059979S01O                                                                                                    
000000145226092017133302008901929000004001900059979E02O                                                                                                    
000000146226092017181102008901929000004001900059979S02O                                                                                                    
000000147227092017091402008901929000004001900059979E01O                                                                                                    
000000148227092017120002008901929000004001900059979S01O                                                                                                    
000000149227092017133302008901929000004001900059979E02O                                                                                                    
000000150227092017182202008901929000004001900059979S02O                                                                                                    
000000151228092017090802008901929000004001900059979E01O                                                                                                    
000000152228092017120102008901929000004001900059979S01O                                                                                                    
000000153228092017132802008901929000004001900059979E02O                                                                                                    
000000154228092017181202008901929000004001900059979S02O                                                                                                    
000000155229092017091602008901929000004001900059979E01O                                                                                                    
000000156229092017120002008901929000004001900059979S01O                                                                                                    
000000157229092017134502008901929000004001900059979E02O                                                                                                    
000000158229092017181602008901929000004001900059979S02O                                                                                                    
000000159201092017093802105088354500004001900059979E01O                                                                                                    
000000160201092017115302105088354500004001900059979S01O                                                                                                    
000000161201092017132602105088354500004001900059979E02O                                                                                                    
000000162201092017191802105088354500004001900059979S02O                                                                                                    
000000163204092017092702105088354500004001900059979E01O                                                                                                    
000000164204092017114602105088354500004001900059979S01O                                                                                                    
000000165204092017134802105088354500004001900059979E02O                                                                                                    
000000166204092017192602105088354500004001900059979S02O                                                                                                    
000000167205092017090502105088354500004001900059979E01O                                                                                                    
000000168205092017115002105088354500004001900059979S01O                                                                                                    
000000169205092017130802105088354500004001900059979E02O                                                                                                    
000000170205092017195902105088354500004001900059979S02O                                                                                                    
000000171206092017093102105088354500004001900059979E01O                                                                                                    
000000172206092017114502105088354500004001900059979S01O                                                                                                    
000000173206092017133902105088354500004001900059979E02O                                                                                                    
000000174206092017180002105088354500004001900059979S02IESQUECEU DE BATER                                                                                   
000000175207092017080002105088354500004001900059979E01IESTAVAMOS SEM O PONTO                                                                               
000000176207092017120002105088354500004001900059979S01IESTAVAMOS SEM O PONTO                                                                               
000000177207092017133002105088354500004001900059979E02IESTAVAMOS SEM O PONTO                                                                               
000000178207092017173002105088354500004001900059979S02IESTAVAMOS SEM O PONTO                                                                               
000000179211092017080002105088354500004001900059979E01IESTAVAMOS SEM O PONTO                                                                               
000000180211092017120002105088354500004001900059979S01IESTAVAMOS SEM O PONTO                                                                               
000000181211092017133002105088354500004001900059979E02IESTAVAMOS SEM O PONTO                                                                               
000000182211092017173002105088354500004001900059979S02IESTAVAMOS SEM O PONTO                                                                               
000000183212092017080002105088354500004001900059979E01IESTAVAMOS SEM O PONTO                                                                               
000000184212092017120002105088354500004001900059979S01IESTAVAMOS SEM O PONTO                                                                               
000000185212092017133002105088354500004001900059979E02IESTAVAMOS SEM O PONTO                                                                               
000000186212092017173002105088354500004001900059979S02IESTAVAMOS SEM O PONTO                                                                               
000000187213092017080002105088354500004001900059979E01IESTAVAMOS SEM O PONTO                                                                               
000000188213092017120002105088354500004001900059979S01IESTAVAMOS SEM O PONTO                                                                               
000000189213092017133002105088354500004001900059979E02IESTAVAMOS SEM O PONTO                                                                               
000000190213092017173002105088354500004001900059979S02IESTAVAMOS SEM O PONTO                                                                               
000000191214092017094402105088354500004001900059979E01O                                                                                                    
000000192214092017120202105088354500004001900059979D00OBatida duplicada                                                                                    
000000193214092017120202105088354500004001900059979S01O                                                                                                    
000000194214092017131702105088354500004001900059979E02O                                                                                                    
000000195214092017181802105088354500004001900059979S02O                                                                                                    
000000196215092017084702105088354500004001900059979E01O                                                                                                    
000000197215092017120202105088354500004001900059979S01O                                                                                                    
000000198215092017133302105088354500004001900059979E02O                                                                                                    
000000199215092017195502105088354500004001900059979S02O                                                                                                    
000000200218092017085402105088354500004001900059979E01O                                                                                                    
000000201218092017120602105088354500004001900059979S01O                                                                                                    
000000202218092017131402105088354500004001900059979E02O                                                                                                    
000000203218092017180602105088354500004001900059979S02O                                                                                                    
000000204219092017090502105088354500004001900059979E01O                                                                                                    
000000205219092017120002105088354500004001900059979S01O                                                                                                    
000000206219092017132002105088354500004001900059979E02O                                                                                                    
000000207219092017191302105088354500004001900059979S02O                                                                                                    
000000208220092017085602105088354500004001900059979E01O                                                                                                    
000000209220092017123702105088354500004001900059979S01O                                                                                                    
000000210220092017130902105088354500004001900059979E02O                                                                                                    
000000211220092017201902105088354500004001900059979S02O                                                                                                    
000000212221092017085402105088354500004001900059979E01O                                                                                                    
000000213221092017120902105088354500004001900059979S01O                                                                                                    
000000214221092017130602105088354500004001900059979E02O                                                                                                    
000000215221092017180902105088354500004001900059979S02O                                                                                                    
000000216222092017085702105088354500004001900059979E01O                                                                                                    
000000217222092017120302105088354500004001900059979S01O                                                                                                    
000000218222092017135302105088354500004001900059979E02O                                                                                                    
000000219222092017190602105088354500004001900059979S02O                                                                                                    
000000220225092017084802105088354500004001900059979E01O                                                                                                    
000000221225092017120002105088354500004001900059979S01O                                                                                                    
000000222225092017131902105088354500004001900059979E02O                                                                                                    
000000223225092017180602105088354500004001900059979S02O                                                                                                    
000000224226092017090902105088354500004001900059979E01O                                                                                                    
000000225226092017120002105088354500004001900059979S01O                                                                                                    
000000226226092017131602105088354500004001900059979E02O                                                                                                    
000000227226092017184502105088354500004001900059979S02O                                                                                                    
000000228227092017091002105088354500004001900059979E01O                                                                                                    
000000229227092017120102105088354500004001900059979S01O                                                                                                    
000000230227092017132102105088354500004001900059979E02O                                                                                                    
000000231227092017191502105088354500004001900059979S02O                                                                                                    
000000232228092017083002105088354500004001900059979E01O                                                                                                    
000000233228092017120002105088354500004001900059979S01O                                                                                                    
000000234228092017132002105088354500004001900059979E02O                                                                                                    
000000235228092017192702105088354500004001900059979S02O                                                                                                    
000000236229092017082802105088354500004001900059979E01O                                                                                                    
000000237229092017120402105088354500004001900059979S01O                                                                                                    
000000238229092017132902105088354500004001900059979E02O                                                                                                    
000000239229092017191602105088354500004001900059979S02O                                                                                                    
000000240201092017082802032644192600004001900059979E01O                                                                                                    
000000241201092017114302032644192600004001900059979S01O                                                                                                    
000000242201092017130502032644192600004001900059979E02O                                                                                                    
000000243201092017183102032644192600004001900059979S02O                                                                                                    
000000244204092017083402032644192600004001900059979E01O                                                                                                    
000000245204092017114202032644192600004001900059979S01O                                                                                                    
000000246204092017131602032644192600004001900059979E02O                                                                                                    
000000247204092017174202032644192600004001900059979S02O                                                                                                    
000000248205092017090502032644192600004001900059979E01O                                                                                                    
000000249205092017114502032644192600004001900059979S01O                                                                                                    
000000250205092017131402032644192600004001900059979E02O                                                                                                    
000000251205092017174102032644192600004001900059979S02O                                                                                                    
000000252206092017082602032644192600004001900059979E01O                                                                                                    
000000253206092017114102032644192600004001900059979S01O                                                                                                    
000000254206092017131702032644192600004001900059979E02O                                                                                                    
000000255206092017180002032644192600004001900059979S02IESQUECEU DE BATER                                                                                   
000000256207092017080002032644192600004001900059979E01IESTAVAMOS SEM O PONTO                                                                               
000000257207092017120002032644192600004001900059979S01IESTAVAMOS SEM O PONTO                                                                               
000000258207092017133002032644192600004001900059979E02IESTAVAMOS SEM O PONTO                                                                               
000000259207092017173002032644192600004001900059979S02IESTAVAMOS SEM O PONTO                                                                               
000000260211092017080002032644192600004001900059979E01IESTAVAMOS SEM O PONTO                                                                               
000000261211092017120002032644192600004001900059979S01IESTAVAMOS SEM O PONTO                                                                               
000000262211092017133002032644192600004001900059979E02IESTAVAMOS SEM O PONTO                                                                               
000000263211092017173002032644192600004001900059979S02IESTAVAMOS SEM O PONTO                                                                               
000000264212092017080002032644192600004001900059979E01IESTAVAMOS SEM O PONTO                                                                               
000000265212092017120002032644192600004001900059979S01IESTAVAMOS SEM O PONTO                                                                               
000000266212092017133002032644192600004001900059979E02IESTAVAMOS SEM O PONTO                                                                               
000000267212092017173002032644192600004001900059979S02IESTAVAMOS SEM O PONTO                                                                               
000000268213092017080002032644192600004001900059979E01IESTAVAMOS SEM O PONTO                                                                               
000000269213092017120002032644192600004001900059979S01IESTAVAMOS SEM O PONTO                                                                               
000000270213092017133002032644192600004001900059979E02IESTAVAMOS SEM O PONTO                                                                               
000000271213092017173002032644192600004001900059979S02IESTAVAMOS SEM O PONTO                                                                               
000000272214092017092202032644192600004001900059979E01O                                                                                                    
000000273214092017120102032644192600004001900059979S01O                                                                                                    
000000274214092017131702032644192600004001900059979E02O                                                                                                    
000000275214092017181802032644192600004001900059979S02O                                                                                                    
000000276215092017081102032644192600004001900059979E01O                                                                                                    
000000277215092017120202032644192600004001900059979S01O                                                                                                    
000000278215092017132602032644192600004001900059979E02O                                                                                                    
000000279215092017173602032644192600004001900059979S02O                                                                                                    
000000280218092017072102032644192600004001900059979E01O                                                                                                    
000000281218092017120402032644192600004001900059979S01O                                                                                                    
000000282218092017132402032644192600004001900059979E02O                                                                                                    
000000283218092017180602032644192600004001900059979S02O                                                                                                    
000000284219092017071902032644192600004001900059979E01O                                                                                                    
000000285219092017120002032644192600004001900059979S01O                                                                                                    
000000286219092017132902032644192600004001900059979E02O                                                                                                    
000000287219092017175502032644192600004001900059979S02O                                                                                                    
000000288220092017072702032644192600004001900059979E01O                                                                                                    
000000289220092017120102032644192600004001900059979S01O                                                                                                    
000000290220092017133002032644192600004001900059979E02O                                                                                                    
000000291220092017174002032644192600004001900059979S02O                                                                                                    
000000292221092017071302032644192600004001900059979E01O                                                                                                    
000000293221092017120102032644192600004001900059979S01O                                                                                                    
000000294221092017132502032644192600004001900059979E02O                                                                                                    
000000295221092017180902032644192600004001900059979S02O                                                                                                    
000000296222092017085702032644192600004001900059979E01O                                                                                                    
000000297222092017120402032644192600004001900059979S01O                                                                                                    
000000298222092017132702032644192600004001900059979E02O                                                                                                    
000000299222092017193802032644192600004001900059979S02O                                                                                                    
000000300225092017072202032644192600004001900059979E01O                                                                                                    
000000301225092017120002032644192600004001900059979S01O                                                                                                    
000000302225092017133102032644192600004001900059979E02O                                                                                                    
000000303225092017180602032644192600004001900059979S02O                                                                                                    
000000304226092017072902032644192600004001900059979E01O                                                                                                    
000000305226092017120002032644192600004001900059979S01O                                                                                                    
000000306226092017132902032644192600004001900059979E02O                                                                                                    
000000307226092017184002032644192600004001900059979S02O                                                                                                    
000000308227092017081402032644192600004001900059979E01O                                                                                                    
000000309227092017120002032644192600004001900059979S01O                                                                                                    
000000310227092017133202032644192600004001900059979E02O                                                                                                    
000000311227092017181902032644192600004001900059979S02O                                                                                                    
000000312228092017071902032644192600004001900059979E01O                                                                                                    
000000313228092017120002032644192600004001900059979S01O                                                                                                    
000000314228092017132702032644192600004001900059979E02O                                                                                                    
000000315228092017193302032644192600004001900059979S02O                                                                                                    
000000316229092017082802032644192600004001900059979E01O                                                                                                    
000000317229092017120102032644192600004001900059979S01O                                                                                                    
000000318229092017133102032644192600004001900059979E02O                                                                                                    
000000319229092017191302032644192600004001900059979S02O                                                                                                    
000000320201092017083202007910387600004001900059979E01O                                                                                                    
000000321201092017115902007910387600004001900059979S01O                                                                                                    
000000322201092017130302007910387600004001900059979E02O                                                                                                    
000000323201092017182002007910387600004001900059979S02O                                                                                                    
000000324204092017084002007910387600004001900059979E01O                                                                                                    
000000325204092017115802007910387600004001900059979S01O                                                                                                    
000000326204092017130802007910387600004001900059979E02O                                                                                                    
000000327204092017184002007910387600004001900059979S02O                                                                                                    
000000328212092017080002007910387600004001900059979E01IESTAVAMOS SEM O PONTO                                                                               
000000329212092017120002007910387600004001900059979S01IESTAVAMOS SEM O PONTO                                                                               
000000330212092017133002007910387600004001900059979E02IESTAVAMOS SEM O PONTO                                                                               
000000331212092017173002007910387600004001900059979S02IESTAVAMOS SEM O PONTO                                                                               
000000332213092017080002007910387600004001900059979E01IESTAVAMOS SEM O PONTO                                                                               
000000333213092017120002007910387600004001900059979S01IESTAVAMOS SEM O PONTO                                                                               
000000334213092017133002007910387600004001900059979E02IESTAVAMOS SEM O PONTO                                                                               
000000335213092017173002007910387600004001900059979S02IESTAVAMOS SEM O PONTO                                                                               
000000336214092017134302007910387600004001900059979E02O                                                                                                    
000000337214092017190102007910387600004001900059979S02O                                                                                                    
000000338219092017084602007910387600004001900059979E01O                                                                                                    
000000339219092017121702007910387600004001900059979S01O                                                                                                    
000000340219092017132502007910387600004001900059979E02O                                                                                                    
000000341219092017180602007910387600004001900059979S02O                                                                                                    
000000342220092017090602007910387600004001900059979E01O                                                                                                    
000000343220092017121702007910387600004001900059979S01O                                                                                                    
000000344220092017132902007910387600004001900059979E02O                                                                                                    
000000345220092017181402007910387600004001900059979S02O                                                                                                    
000000346221092017092602007910387600004001900059979E01O                                                                                                    
000000347221092017121702007910387600004001900059979S01O                                                                                                    
000000348221092017131702007910387600004001900059979E02O                                                                                                    
000000349221092017183602007910387600004001900059979S02O                                                                                                    
000000350222092017085302007910387600004001900059979E01O                                                                                                    
000000351222092017095802007910387600004001900059979D00OTESTE                                                                                               
000000352222092017100002007910387600004001900059979D00OBatida duplicada                                                                                    
000000353222092017100102007910387600004001900059979D00OBatida duplicada                                                                                    
000000354222092017100202007910387600004001900059979D00OBatida duplicada                                                                                    
000000355222092017100202007910387600004001900059979D00OBatida duplicada                                                                                    
000000356222092017121602007910387600004001900059979S01O                                                                                                    
000000357222092017132502007910387600004001900059979E02O                                                                                                    
000000358222092017152402007910387600004001900059979S02O                                                                                                    
000000359222092017164502007910387600004001900059979E03O                                                                                                    
000000360222092017184702007910387600004001900059979S03O                                                                                                    
000000361225092017081002007910387600004001900059979E01O                                                                                                    
000000362225092017121702007910387600004001900059979S01O                                                                                                    
000000363225092017140702007910387600004001900059979E02O                                                                                                    
000000364225092017181302007910387600004001900059979S02O                                                                                                    
000000365226092017082202007910387600004001900059979E01O                                                                                                    
000000366226092017121702007910387600004001900059979S01O                                                                                                    
000000367226092017132302007910387600004001900059979E02O                                                                                                    
000000368226092017183802007910387600004001900059979S02O                                                                                                    
000000369227092017081302007910387600004001900059979E01O                                                                                                    
000000370227092017121702007910387600004001900059979S01O                                                                                                    
000000371227092017132002007910387600004001900059979E02O                                                                                                    
000000372227092017180302007910387600004001900059979S02O                                                                                                    
000000373228092017085202007910387600004001900059979E01O                                                                                                    
000000374228092017121702007910387600004001900059979S01O                                                                                                    
000000375228092017132002007910387600004001900059979E02O                                                                                                    
000000376228092017180602007910387600004001900059979S02O                                                                                                    
000000377229092017083402007910387600004001900059979E01O                                                                                                    
000000378229092017121702007910387600004001900059979S01O                                                                                                    
000000379229092017132402007910387600004001900059979E02O                                                                                                    
000000380229092017183802007910387600004001900059979S02O                                                                                                    
000000381230092017091102007910387600004001900059979E01O                                                                                                    
000000382230092017120402007910387600004001900059979S01O                                                                                                    
000000383230092017130302007910387600004001900059979E02O                                                                                                    
000000384230092017164602007910387600004001900059979S02O                                                                                                    
000000385201092017074201264690972300004001900059979E01O                                                                                                    
000000386201092017120001264690972300004001900059979S01P                                                                                                    
000000387201092017123001264690972300004001900059979E02P                                                                                                    
000000388201092017125701264690972300004001900059979S02O                                                                                                    
000000389204092017073701264690972300004001900059979E01O                                                                                                    
000000390204092017120001264690972300004001900059979S01P                                                                                                    
000000391204092017123001264690972300004001900059979E02P                                                                                                    
000000392204092017142201264690972300004001900059979S02O                                                                                                    
000000393205092017073001264690972300004001900059979E01IESQUECEU DE BATER                                                                                   
000000394205092017120001264690972300004001900059979S01IESQUECEU DE BATER                                                                                   
000000395205092017123001264690972300004001900059979E02IESQUECEU DE BATER                                                                                   
000000396205092017132701264690972300004001900059979S02O                                                                                                    
000000397206092017073001264690972300004001900059979E01IESQUECEU DE BATER                                                                                   
000000398206092017115001264690972300004001900059979S01O                                                                                                    
000000399207092017080001264690972300004001900059979E01IESTAVAMOS SEM O PONTO                                                                               
000000400207092017120001264690972300004001900059979S01IESQUECEU DE BATER                                                                                   
000000401207092017123001264690972300004001900059979E02IESTAVAMOS SEM O PONTO                                                                               
000000402207092017143001264690972300004001900059979S02IESTAVAMOS SEM O PONTO                                                                               
000000403211092017080001264690972300004001900059979E01IESTAVAMOS SEM O PONTO                                                                               
000000404211092017120001264690972300004001900059979S01IESTAVAMOS SEM O PONTO                                                                               
000000405211092017123001264690972300004001900059979E02IESTAVAMOS SEM O PONTO                                                                               
000000406211092017143001264690972300004001900059979S02IESTAVAMOS SEM O PONTO                                                                               
000000407212092017080001264690972300004001900059979E01IESTAVAMOS SEM O PONTO                                                                               
000000408212092017120001264690972300004001900059979S01IESTAVAMOS SEM O PONTO                                                                               
000000409212092017123001264690972300004001900059979E02IESTAVAMOS SEM O PONTO                                                                               
000000410212092017143001264690972300004001900059979S02IESTAVAMOS SEM O PONTO                                                                               
000000411213092017080001264690972300004001900059979E01IESTAVAMOS SEM O PONTO                                                                               
000000412213092017120001264690972300004001900059979S01IESTAVAMOS SEM O PONTO                                                                               
000000413213092017123001264690972300004001900059979E02IESTAVAMOS SEM O PONTO                                                                               
000000414213092017143001264690972300004001900059979S02IESTAVAMOS SEM O PONTO                                                                               
000000415214092017080001264690972300004001900059979E01IESTAVAMOS SEM O PONTO                                                                               
000000416214092017120001264690972300004001900059979S01P                                                                                                    
000000417214092017123001264690972300004001900059979E02P                                                                                                    
000000418214092017144101264690972300004001900059979S02O                                                                                                    
000000419215092017080001264690972300004001900059979E01IESQUECEU DE BATER                                                                                   
000000420215092017120001264690972300004001900059979S01IESQUECEU DE BATER                                                                                   
000000421215092017123001264690972300004001900059979E02IESQUECEU DE BATER                                                                                   
000000422215092017141601264690972300004001900059979S02O                                                                                                    
000000423218092017072901264690972300004001900059979E01O                                                                                                    
000000424218092017120001264690972300004001900059979S01P                                                                                                    
000000425218092017123001264690972300004001900059979E02P                                                                                                    
000000426218092017141901264690972300004001900059979S02O                                                                                                    
000000427219092017072901264690972300004001900059979E01O                                                                                                    
000000428219092017120001264690972300004001900059979S01P                                                                                                    
000000429219092017123001264690972300004001900059979E02P                                                                                                    
000000430219092017141101264690972300004001900059979S02O                                                                                                    
000000431220092017073601264690972300004001900059979E01O                                                                                                    
000000432220092017120001264690972300004001900059979S01P                                                                                                    
000000433220092017123001264690972300004001900059979E02P                                                                                                    
000000434220092017144901264690972300004001900059979S02O                                                                                                    
000000435221092017073101264690972300004001900059979E01O                                                                                                    
000000436221092017120001264690972300004001900059979S01P                                                                                                    
000000437221092017123001264690972300004001900059979E02P                                                                                                    
000000438221092017140601264690972300004001900059979S02O                                                                                                    
000000439222092017073001264690972300004001900059979E01IESQUECEU DE BATER                                                                                   
000000440222092017120001264690972300004001900059979S01IESQUECEU DE BATER                                                                                   
000000441222092017123001264690972300004001900059979E02IESQUECEU DE BATER                                                                                   
000000442222092017144901264690972300004001900059979S02O                                                                                                    
000000443225092017075901264690972300004001900059979E01O                                                                                                    
000000444225092017120001264690972300004001900059979S01P                                                                                                    
000000445225092017123001264690972300004001900059979E02P                                                                                                    
000000446225092017141401264690972300004001900059979S02O                                                                                                    
000000447226092017074201264690972300004001900059979E01O                                                                                                    
000000448226092017120001264690972300004001900059979S01P                                                                                                    
000000449226092017123001264690972300004001900059979E02P                                                                                                    
000000450226092017142901264690972300004001900059979S02O                                                                                                    
000000451227092017075801264690972300004001900059979E01O                                                                                                    
000000452227092017120001264690972300004001900059979S01P                                                                                                    
000000453227092017123001264690972300004001900059979E02P                                                                                                    
000000454227092017135401264690972300004001900059979S02O                                                                                                    
000000455228092017095901264690972300004001900059979E01O                                                                                                    
000000456228092017120001264690972300004001900059979S01P                                                                                                    
000000457228092017123001264690972300004001900059979E02P                                                                                                    
000000458228092017144801264690972300004001900059979S02O                                                                                                    
000000459229092017073001264690972300004001900059979E01O                                                                                                    
000000460229092017120001264690972300004001900059979S01P                                                                                                    
000000461229092017123001264690972300004001900059979E02P                                                                                                    
000000462229092017140401264690972300004001900059979S02O                                                                                                    
000000463201092017075701273986351000004001900059979E01O                                                                                                    
000000464201092017114401273986351000004001900059979S01O                                                                                                    
000000465201092017130501273986351000004001900059979E02O                                                                                                    
000000466201092017182001273986351000004001900059979S02O                                                                                                    
000000467204092017075601273986351000004001900059979E01O                                                                                                    
000000468204092017114501273986351000004001900059979S01O                                                                                                    
000000469204092017131101273986351000004001900059979E02O                                                                                                    
000000470204092017180701273986351000004001900059979S02O                                                                                                    
000000471205092017075001273986351000004001900059979E01O                                                                                                    
000000472205092017114501273986351000004001900059979S01O                                                                                                    
000000473205092017131601273986351000004001900059979E02O                                                                                                    
000000474205092017175701273986351000004001900059979S02O                                                                                                    
000000475206092017075401273986351000004001900059979E01O                                                                                                    
000000476206092017114401273986351000004001900059979S01O                                                                                                    
000000477206092017131801273986351000004001900059979E02O                                                                                                    
000000478206092017180001273986351000004001900059979S02IESQUECEU DE BATER                                                                                   
000000479207092017080001273986351000004001900059979E01IESTAVAMOS SEM O PONTO                                                                               
000000480207092017120001273986351000004001900059979S01IESTAVAMOS SEM O PONTO                                                                               
000000481207092017133001273986351000004001900059979E02IESTAVAMOS SEM O PONTO                                                                               
000000482207092017180001273986351000004001900059979S02IESTAVAMOS SEM O PONTO                                                                               
000000483211092017080001273986351000004001900059979E01IESTAVAMOS SEM O PONTO                                                                               
000000484211092017120001273986351000004001900059979S01IESTAVAMOS SEM O PONTO                                                                               
000000485211092017133001273986351000004001900059979E02IESTAVAMOS SEM O PONTO                                                                               
000000486211092017180001273986351000004001900059979S02IESTAVAMOS SEM O PONTO                                                                               
000000487212092017080001273986351000004001900059979E01IESTAVAMOS SEM O PONTO                                                                               
000000488212092017120001273986351000004001900059979S01IESTAVAMOS SEM O PONTO                                                                               
000000489212092017133001273986351000004001900059979E02IESTAVAMOS SEM O PONTO                                                                               
000000490212092017180001273986351000004001900059979S02IESTAVAMOS SEM O PONTO                                                                               
000000491213092017080001273986351000004001900059979E01IESTAVAMOS SEM O PONTO                                                                               
000000492213092017120001273986351000004001900059979S01IESTAVAMOS SEM O PONTO                                                                               
000000493213092017133001273986351000004001900059979E02IESTAVAMOS SEM O PONTO                                                                               
000000494213092017180001273986351000004001900059979S02IESTAVAMOS SEM O PONTO                                                                               
000000495214092017080001273986351000004001900059979E01IESTAVAMOS SEM O PONTO                                                                               
000000496214092017121801273986351000004001900059979S01O                                                                                                    
000000497214092017133201273986351000004001900059979E02O                                                                                                    
000000498214092017180001273986351000004001900059979S02IESTAVAMOS SEM O PONTO                                                                               
000000499215092017080001273986351000004001900059979E01O                                                                                                    
000000500215092017121901273986351000004001900059979S01O                                                                                                    
000000501215092017133101273986351000004001900059979E02O                                                                                                    
000000502215092017215201273986351000004001900059979S02O                                                                                                    
000000503218092017075401273986351000004001900059979E01O                                                                                                    
000000504218092017122001273986351000004001900059979S01O                                                                                                    
000000505218092017132901273986351000004001900059979E02O                                                                                                    
000000506218092017184301273986351000004001900059979S02O                                                                                                    
000000507219092017080001273986351000004001900059979E01IESQUECEU DE BATER                                                                                   
000000508219092017121801273986351000004001900059979S01O                                                                                                    
000000509219092017133401273986351000004001900059979E02O                                                                                                    
000000510219092017181201273986351000004001900059979S02O                                                                                                    
000000511220092017074901273986351000004001900059979E01O                                                                                                    
000000512220092017121901273986351000004001900059979S01O                                                                                                    
000000513220092017134101273986351000004001900059979E02O                                                                                                    
000000514220092017200601273986351000004001900059979S02O                                                                                                    
000000515221092017074901273986351000004001900059979E01O                                                                                                    
000000516221092017121801273986351000004001900059979S01O                                                                                                    
000000517221092017133101273986351000004001900059979E02O                                                                                                    
000000518221092017200701273986351000004001900059979S02O                                                                                                    
000000519222092017075401273986351000004001900059979E01O                                                                                                    
000000520222092017121601273986351000004001900059979S01O                                                                                                    
000000521222092017133001273986351000004001900059979D00OERRADO                                                                                              
000000522222092017134101273986351000004001900059979E02O                                                                                                    
000000523222092017204201273986351000004001900059979S02O                                                                                                    
000000524225092017075601273986351000004001900059979E01O                                                                                                    
000000525225092017121801273986351000004001900059979S01O                                                                                                    
000000526225092017134001273986351000004001900059979E02O                                                                                                    
000000527225092017180701273986351000004001900059979S02O                                                                                                    
000000528226092017075501273986351000004001900059979E01O                                                                                                    
000000529226092017121801273986351000004001900059979S01O                                                                                                    
000000530226092017134001273986351000004001900059979E02IESQUECEU DE BATER                                                                                   
000000531226092017180601273986351000004001900059979S02O                                                                                                    
000000532227092017075001273986351000004001900059979E01O                                                                                                    
000000533227092017121701273986351000004001900059979S01O                                                                                                    
000000534227092017133701273986351000004001900059979E02O                                                                                                    
000000535227092017180201273986351000004001900059979S02O                                                                                                    
000000536228092017075501273986351000004001900059979E01O                                                                                                    
000000537228092017121801273986351000004001900059979S01O                                                                                                    
000000538228092017133501273986351000004001900059979E02O                                                                                                    
000000539228092017181301273986351000004001900059979S02O                                                                                                    
000000540229092017075701273986351000004001900059979E01O                                                                                                    
000000541229092017122001273986351000004001900059979S01O                                                                                                    
000000542229092017133001273986351000004001900059979E02IESQUECEU DE BATER                                                                                   
000000543229092017180101273986351000004001900059979S02O                                                                                                    
000000544230092017083401273986351000004001900059979E01O                                                                                                    
000000545230092017140101273986351000004001900059979S01O                                                                                                    
000000546201092017083101544503587900004001900059979E01O                                                                                                    
000000547201092017114401544503587900004001900059979S01O                                                                                                    
000000548201092017131301544503587900004001900059979E02O                                                                                                    
000000549201092017182901544503587900004001900059979S02O                                                                                                    
000000550204092017084901544503587900004001900059979E01O                                                                                                    
000000551204092017114201544503587900004001900059979S01O                                                                                                    
000000552204092017131201544503587900004001900059979E02O                                                                                                    
000000553204092017192801544503587900004001900059979S02O                                                                                                    
000000554205092017085301544503587900004001900059979E01O                                                                                                    
000000555205092017114301544503587900004001900059979S01O                                                                                                    
000000556205092017131501544503587900004001900059979E02O                                                                                                    
000000557205092017184201544503587900004001900059979S02O                                                                                                    
000000558206092017084001544503587900004001900059979E01O                                                                                                    
000000559206092017114001544503587900004001900059979S01O                                                                                                    
000000560206092017132001544503587900004001900059979E02O                                                                                                    
000000561206092017180001544503587900004001900059979S02IESQUECEU DE BATER                                                                                   
000000562211092017080001544503587900004001900059979E01IESTAVAMOS SEM O PONTO                                                                               
000000563211092017120001544503587900004001900059979S01IESTAVAMOS SEM O PONTO                                                                               
000000564211092017133001544503587900004001900059979E02IESTAVAMOS SEM O PONTO                                                                               
000000565211092017180001544503587900004001900059979S02IESTAVAMOS SEM O PONTO                                                                               
000000566212092017080001544503587900004001900059979E01IESTAVAMOS SEM O PONTO                                                                               
000000567212092017120001544503587900004001900059979S01IESTAVAMOS SEM O PONTO                                                                               
000000568212092017133001544503587900004001900059979E02IESTAVAMOS SEM O PONTO                                                                               
000000569212092017180001544503587900004001900059979S02IESTAVAMOS SEM O PONTO                                                                               
000000570213092017080001544503587900004001900059979E01IESTAVAMOS SEM O PONTO                                                                               
000000571213092017120001544503587900004001900059979S01IESTAVAMOS SEM O PONTO                                                                               
000000572213092017133001544503587900004001900059979E02IESTAVAMOS SEM O PONTO                                                                               
000000573213092017180001544503587900004001900059979S02IESTAVAMOS SEM O PONTO                                                                               
000000574214092017090401544503587900004001900059979E01O                                                                                                    
000000575214092017120101544503587900004001900059979S01O                                                                                                    
000000576214092017132801544503587900004001900059979E02O                                                                                                    
000000577214092017193401544503587900004001900059979S02O                                                                                                    
000000578215092017092901544503587900004001900059979E01O                                                                                                    
000000579215092017120101544503587900004001900059979S01O                                                                                                    
000000580215092017133101544503587900004001900059979E02O                                                                                                    
000000581215092017214101544503587900004001900059979S02O                                                                                                    
000000582218092017100901544503587900004001900059979E01O                                                                                                    
000000583218092017120401544503587900004001900059979S01O                                                                                                    
000000584218092017133001544503587900004001900059979E02IESQUECEU DE BATER                                                                                   
000000585218092017193801544503587900004001900059979S02O                                                                                                    
000000586219092017093001544503587900004001900059979E01O                                                                                                    
000000587219092017120001544503587900004001900059979S01O                                                                                                    
000000588219092017132101544503587900004001900059979E02O                                                                                                    
000000589219092017191401544503587900004001900059979S02O                                                                                                    
000000590220092017085501544503587900004001900059979E01O                                                                                                    
000000591220092017120101544503587900004001900059979S01O                                                                                                    
000000592220092017131401544503587900004001900059979E02O                                                                                                    
000000593220092017192401544503587900004001900059979S02O                                                                                                    
000000594221092017085201544503587900004001900059979E01O                                                                                                    
000000595221092017120001544503587900004001900059979S01O                                                                                                    
000000596221092017132701544503587900004001900059979E02O                                                                                                    
000000597221092017193201544503587900004001900059979S02O                                                                                                    
000000598222092017085301544503587900004001900059979E01O                                                                                                    
000000599222092017120001544503587900004001900059979S01O                                                                                                    
000000600222092017133701544503587900004001900059979E02O                                                                                                    
000000601222092017204201544503587900004001900059979S02O                                                                                                    
000000602225092017084901544503587900004001900059979E01O                                                                                                    
000000603225092017120001544503587900004001900059979S01O                                                                                                    
000000604225092017133301544503587900004001900059979E02O                                                                                                    
000000605225092017192401544503587900004001900059979S02O                                                                                                    
000000606226092017084901544503587900004001900059979E01O                                                                                                    
000000607226092017120001544503587900004001900059979S01O                                                                                                    
000000608226092017132701544503587900004001900059979E02O                                                                                                    
000000609226092017190401544503587900004001900059979S02O                                                                                                    
000000610227092017085401544503587900004001900059979E01O                                                                                                    
000000611227092017120001544503587900004001900059979S01O                                                                                                    
000000612227092017133101544503587900004001900059979E02O                                                                                                    
000000613227092017180001544503587900004001900059979S02IESQUECEU DE BATER                                                                                   
000000614228092017085101544503587900004001900059979E01O                                                                                                    
000000615228092017120001544503587900004001900059979S01O                                                                                                    
000000616228092017132901544503587900004001900059979E02O                                                                                                    
000000617228092017193001544503587900004001900059979S02O                                                                                                    
000000618229092017085401544503587900004001900059979E01O                                                                                                    
000000619229092017120001544503587900004001900059979S01O                                                                                                    
000000620229092017133001544503587900004001900059979E02O                                                                                                    
000000621229092017192401544503587900004001900059979S02O                                                                                                    
000000622230092017092301544503587900004001900059979E01O                                                                                                    
000000623230092017120001544503587900004001900059979S01O                                                                                                    
000000624230092017132401544503587900004001900059979E02O                                                                                                    
000000625230092017171801544503587900004001900059979S02O                                                                                                    
000000626201092017075601343095672100004001900059979E01O                                                                                                    
000000627201092017115401343095672100004001900059979S01O                                                                                                    
000000628201092017132601343095672100004001900059979E02O                                                                                                    
000000629201092017180001343095672100004001900059979S02IESQUECEU DE BATER                                                                                   
000000630204092017073801343095672100004001900059979E01O                                                                                                    
000000631204092017114701343095672100004001900059979S01O                                                                                                    
000000632204092017134701343095672100004001900059979E02O                                                                                                    
000000633204092017174801343095672100004001900059979S02O                                                                                                    
000000634205092017080601343095672100004001900059979E01O                                                                                                    
000000635205092017115001343095672100004001900059979S01O                                                                                                    
000000636205092017130801343095672100004001900059979E02O                                                                                                    
